:020000040800F2
:1000000000000220ED7E00089D340008B534000891
:10001000B1340008AD340008A93400080000000025
:10002000000000000000000000000000A5340008EF
:10003000A13400080000000099340008813800084D
:10004000477F0008497F00084B7F00084D7F00086C
:100050004F7F0008517F0008537F0008557F00083C
:10006000577F0008597F00085B7F00085D7F00080C
:100070005F7F0008617F0008637F0008657F0008DC
:10008000677F0008697F00086B7F00086D7F0008AC
:100090006F7F0008717F0008737F0008D972000825
:1000A000793B0008797F00087B7F00087D7F00088E
:1000B0007F7F000831730008DD720008857F00082B
:1000C000877F0008897F00088B7F00088D7F0008EC
:1000D0008F7F00086972000879700008957F00081A
:1000E000977F0008997F00089B7F00089D7F00088C
:1000F0009F7F0008A17F0008A37F0008A57F00085C
:10010000A77F0008A97F0008AB7F0008AD7F00082B
:10011000AF7F0008B17F0008B37F0008B57F0008FB
:10012000B77F0008B97F0008BB7F0008BD7F0008CB
:10013000BF7F0008C17F0008C37F0008C57F00089B
:10014000C77F0008C97F0008CB7F0008CD7F00086B
:10015000CF7F0008D17F0008D37F00080970000816
:10016000D77F0008D97F0008DB7F0008DD7F00080B
:10017000DF7F0008E17F0008E37F0008E57F0008DB
:10018000E77F0008E97F000810B5054C237833B9F4
:10019000044B13B10448AFF300800123237010BD5A
:1001A000C80000200000000050F20008084B10B505
:1001B0001BB108490848AFF300800848036803B939
:1001C00010BD074B002BFBD0BDE81040184700BF07
:1001D00000000000CC00002050F20008C800002001
:1001E00000000000154B002B08BF134B9D46A3F5E4
:1001F000803A00218B460F461348144A121A07F022
:1002000037FF0F4B002B00D098470E4B002B00D030
:1002100098470020002104000D000D48002802D05E
:100220000C48AFF3008007F0FDFE2000290000F02D
:1002300013F807F0E3FE00BF0000080000000220F2
:100240000000000000000000C8000020642F002013
:1002500000000000000000002DE98048BE4C23781B
:1002600093B01BB906F01AFE01232370BB4BBC48A8
:100270001A6CBC4C42F400321A641A6B42F0010250
:100280001A63036A23F470630362036A43F4E0634E
:100290000362036A23F470430362036A43F4E04396
:1002A0000362022308A900220C268DF824300325BE
:1002B00001238DF826208DF8273008968DF82550DB
:1002C00006F04AFBA3896FEA43436FEA53439BB2AC
:1002D000A381238A23F440531B041B0C2382A3898C
:1002E0009BB223F4B05323F00C033343A381A38ABE
:1002F00023F440731B041B0CA3820DA806F0BCFA68
:10030000A2890F9B984C12F4004F03EB8303974A8A
:1003100003EB8303A2FB0323924A14BF5B0C9B0CE9
:100320009289A4FB031040096421170400FB1133D8
:100330004FEA001000F108821A013232A4FB0223B6
:10034000C3F343130343874DDFF81082884C9BB2FD
:100350002B810126002726230DA88DF834308DF837
:1003600035608DF837608DF8367007F09DFC814A56
:100370007B48136843F020031360AB899BB243F4BE
:100380000053AB81D8F830307B4D43F00703C8F8F9
:1003900030300DA913230D938DF838708DF8396026
:1003A0008DF83A708DF83B6006F0D6FA4FF4807302
:1003B0000DA972480D9306F0CFFAD8F8303068488E
:1003C00043F00703C8F830304FF4E0630D930DA9F4
:1003D00003238DF839308DF838608DF83A708DF838
:1003E0003B7006F0B9FA40F23E430DA963480D9305
:1003F00006F0B2FAD8F8443043F48033C8F84430F9
:10040000238823F440731B041B0C4FF6FF71062254
:100410002380E1622285A682238C23F001031B0442
:100420001B0C2384238CA188228B23F0020322F04F
:1004300073021B04120489B21B0C120CA18042F03F
:10044000100240F6FF7143F00203228361632384AC
:10045000238B23F008031B041B0C43F008032383A6
:1004600023889BB243F0800323800DA818238DF8C6
:1004700034308DF835708DF836708DF8376007F0B0
:1004800013FCA3893E499BB243F00303A381238855
:1004900023F001031B041B0C238028464FF48062C9
:1004A00009F0C8F92B78072B00F0DC87072007F04C
:1004B0006DF8FF2006F0A4FF07F0CAF8314B0022C8
:1004C00003F5A0711A605A609A60DA6010338B42AB
:1004D000F8D14FF4A072B4212A4803F07DF82A4BDA
:1004E0002A4A2B4800241C605C609C60DC601C6114
:1004F00014602146C2F8034040F2071207F0B8FD2D
:1005000021464FF44672234807F0B2FD21464FF4CE
:100510000072214807F0ACFD0DA806F0ADF90E9B66
:100520001E481F4A1F49A0FB03039B09013B536060
:10053000F020072381F8230094601360C868C0F39B
:100540000220191A042900F1040328BF0421062BF4
:1005500040F2848728E000BF700A00200038024083
:1005600000000240004400401F85EB51C5B3A2913A
:10057000004001400C440040F00000200004024014
:100580000000060830090020BC0D0020E400002017
:100590001005002018060020740A0020D34D6210B8
:1005A00010E000E000ED00E0033801238340013B50
:1005B00003F0050301228A40013A02F0050202FA23
:1005C00000F0DFF88CB28E499BF88F208D4CDFF85D
:1005D0008482DFED8DAA03431B01DBB281F8233057
:1005E000C2F300120025894B894F1D703D80894F51
:1005F000217D3D70884FA5603D70884F2560642344
:10060000228065618648217565600021E56025616D
:10061000A5617422C8F80050C8F80450C8F8085002
:10062000C8F80C50C8F810503D7023726372A37262
:1006300007F01EFD7B49002006F0CCFE10B9072014
:1006400006F0A4FFDFF8109204F078FE05F09EFE9D
:1006500003F0D4F8D9F83030734843F00703C9F8F1
:10066000303001274FF0030A0DA98DF83A508DF86C
:100670003B500D978DF838708DF839A006F06CF965
:1006800002230DA969480D9306F066F9664B5F8356
:1006900006F0B6F9D9F83030644843F00703C9F8DA
:1006A00030300DA90D978DF839A08DF83B708DF87D
:1006B00038508DF83A5006F04FF99BF98F305C4A6C
:1006C000002B1570A8BF177004F062FB04F056FCF5
:1006D00004F092FD06F080F85649574806F06EFB8C
:1006E00006F036FB9BF88F301E0700F193812388BC
:1006F000444F13F0810300F07781022007F054F992
:1007000001233B8000279FED4DAA9FED4D9ADFED21
:100710004D8ADFED4D9AB9460DF10E020021012000
:1007200006F078FBC8B99DF80E300A2B23D00D2BAC
:1007300021D0B9F1000F40D0292BEDD119F0020FD3
:10074000EAD009F0FD09E7E7D9003231A4FB013214
:10075000C2F3421242EA0003F5E504F0E5FD04F0BD
:1007600009FEE378002B3FD1A378002BD4D006F00C
:1007700095FB228837E704F0FDFDE378002B36D1A6
:10078000A3782049002BF2D1304AD35519F0010744
:1007900030D11078002800F0E280242800F0F180A9
:1007A0000B8823F4EF739B059B0D002B00F0DC807E
:1007B0000920B94606F0EAFEAEE7202BACD92F2B74
:1007C000AAD0282B00F0D7803B2B00F00A81C62F3F
:1007D00000F2D480A3F16102192A1C4998BF203B82
:1007E0007A1CCB55D7B297E707F03EF9BCE707F084
:1007F0003BF9C5E70B201F46994606F0C7FE8BE77D
:1008000000ED00E0A00D002000000000EB00002043
:1008100006050020ED00002008050020040500204A
:10082000740C0020AC0C00200004024000080240C0
:10083000EC00002014EA00081CEA000800007F43D6
:1008400000BADB4A0000704200008C42882E002073
:10085000E80C0020F004002000380240A24FA3481A
:1008600006F0ACFA39788B2940F2ED83A04806F007
:10087000A5FA39789F488A3906F0A0FA9A4F9E481F
:1008800006F09CFAF9799B48363106F097FA9A48B7
:1008900006F094FA79799748113106F08FFA964864
:1008A00006F08CFAB9789348C1F1150106F086FA82
:1008B000914806F083FAF9788E485A3106F07EFAAC
:1008C0008D4806F07BFA79788A48C1F15E0106F01E
:1008D00075FA894806F072FA39798648623106F06D
:1008E0006DFA3B7A002B40F09A83844806F066FA52
:1008F0007D4B9B7A102B00F0A284202B00F09A8471
:10090000002B00F047847D4806F058FA764B5B7A5E
:10091000002B40F09483392006F040FA784806F026
:100920004DFA714B7348197E06F048FA754806F087
:1009300045FA6D4B93ED050A02F004FF724806F08C
:100940003DFA694B002093ED040A06F083F95D201F
:1009500006F024FA4FF0000906F04AFE4846002748
:1009600006F014FEB946D7E61F4600F0F7FEB9467A
:1009700006F00CFED0E64FF00209CDE64FF001097B
:10098000CAE692F801900123B9F1470F8DF80F30B4
:1009900079D04AD9B9F1500F00F0908058D9B9F107
:1009A000540F66D192F8029002238DF80F30B9F1FE
:1009B000000F40F02282EFF3108272B6534B53497E
:1009C0001B8823F400731B041B0C0B8082F310881C
:1009D000237D2580002B40F0C6824FF01209484647
:1009E000BDE74FF0040997E63B8003F0E9FBC00741
:1009F0007FF588AE454B454A1B889BB243F02003E8
:100A0000138004F0B7FCFB78002B3FF47BAE07F0BB
:100A10002BF877E605F09CFD00283FF468AE012333
:100A20000720238006F0C0FF61E6B9F1240F2AD029
:100A3000B9F1430F27D0B9F1000F1DD1344806F0AA
:100A4000BDF9344806F0BAF906F082F9484686E75F
:100A5000B9F14A0F10D10B8823F020039BB273B970
:100A60002D4B9B783D2B00F0C3824FF00309484685
:100A700075E7B9F1580F06D02388012B54D94FF0F0
:100A8000080948466BE7244B9F78002FEDD1B9F158
:100A9000430F00F09C8240F27D82B9F1470F3FF492
:100AA000DDAEB9F1580F40F0A4812388DFF870A0C3
:100AB000012B00F0BC84B946484650E70A7D002A65
:100AC0008BD0DFF860E08BF87930BEE80F00134E72
:100AD0003060DEF800003061B9467160B260F360EA
:100AE00006F054FC48463AE7740C0020BCEA0008C3
:100AF000C4EA0008C8EA0008CCEA0008D0EA000806
:100B0000D4EA0008D8EA0008DCEA0008060500205C
:100B10004CEA000898EA0008882E00204D0D0020BD
:100B2000A00D0020BC0D0020A9F12309B9F1300F60
:100B300000F26A82DFE819F0AB006802680268021E
:100B40006802680268026802680268026802680255
:100B50006802680268026802680268026802680245
:100B60006802680268026802680268026802680235
:100B70006802680268026802680268026802680225
:100B800068027600810068026802680268026802F2
:100B90006802680268024E003100C64B9A784C2AFF
:100BA0007FF463AFDA78502A7FF45FAF93F8049054
:100BB000B9F1000F7FF459AFEFF3108272B6BE4B5C
:100BC000BD491B889BB243F080030B8082F31088E1
:100BD0004846C4E6B74B9A78532A7FF446AFDA7892
:100BE000542A7FF442AF1A793D2A7FF43EAF93F83E
:100BF0000690B9F1000F7FF438AF5B79242B00F039
:100C0000948540F29C852A2B00F09485542B7FF428
:100C10002CAF02F0C3FD092006F0C6FE05F022F855
:100C200048469CE69BF88F30DFF8CCA2DE0600F148
:100C30000E824FF00509484691E69E4B93F80290CC
:100C40001F4602238DF80F30B9F1000F00F03582F6
:100C50000323B9F13D0F8DF80F307FF406AF954AAD
:100C60009649D25CCA54CA1C1A4401331278DBB2CA
:100C7000002AF4D140F2AE309146033150228DF873
:100C80000F3002F08DFC02F017FC484667E6894BF6
:100C900093F80290B9F1000F7FF4E7AE4FF0360AF7
:100CA00001274E46AAF136035FFA83F9484608A9A0
:100CB00006F090FB002800F06482814806F07EF880
:100CC000B9F1060F00F04E82B9F1070F40F03482FF
:100CD0007C4806F073F83A2006F060F808A806F0A1
:100CE00071FC5D20B14606F059F806F081FC764FA4
:100CF000764806F063F8A7F1180006F063FC5D2063
:100D000006F04CF806F074FC714806F057F817ED41
:100D1000010A07F1100A02F02BFD6E4806F04EF8AA
:100D2000B7EC010A02F024FD5745F6D15D2006F02C
:100D300035F806F05DFC06F067FC674806F03EF803
:100D400066490DA803F010FA9DED0D0A02F010FDA2
:100D50002C2006F023F89DED0E0A02F009FD2C2050
:100D600006F01CF89DED0F0A02F002FD3A2006F095
:100D700015F89BF879105A4806F020F85D2006F027
:100D80000DF806F035FC05F0E3FF4846E7E504A85A
:100D900007F030F9C7B23946524806F00FF8132F62
:100DA00040F2EC809FED508A0C2006F0FDFDB0EE85
:100DB00048BAF0EE48BAB0EE480A02F0D9FC3A2040
:100DC00005F0ECFFB0EE6B0A02F0D2FC3A2005F021
:100DD000E5FFB0EE4B0A02F0CBFC3A2005F0DEFF57
:100DE000B0EE480A02F0C4FC5D2005F0D7FF06F023
:100DF000FFFB4FF000094846B1E53C4B3C4FD3F8B0
:100E000000C0089509950A950B95049504A900233F
:100E100017F8012F01F8012BD81CC0B20CEB020E01
:100E20008DF80F009EF801E01EF0040F03F101039E
:100E300000F0DC80032BEBD112A90B443D2A03F810
:100E4000385CA4D10DAB0D950E950F9510951E46EF
:100E50000027184B03EB000A504609F04DFC234ACB
:100E6000B8420AEB0703D2F800C00BD913F8012BE4
:100E70000CEB02014978490740D42D2A3ED00137B6
:100E8000B842F3D89DF81430B9465FFA89F7002BC1
:100E900055D0334632460433164905A81E460CF099
:100EA00097FC11AAB2428DF8145048D09DF80F005B
:100EB000CFE700BF882E002006050020852E0020E9
:100EC000F0EA0008F8EA0008D80C0020FCEA000864
:100ED00004EB000814EB00080CEB00084D0D00209B
:100EE000C8EA0008E4EA0008000000001C00002036
:100EF000892E0020E0EA0008E80C00200AEB070039
:100F00000DF1140E00210EF8012B10F8012F0CEB3F
:100F1000020301315B7803F0040303F0FF0A01EBE5
:100F20000709002BEFD12E2AEDD012AB19445FFA3E
:100F300089F701F834AC9DF81430002BA9D10D9A33
:100F40000E9B089209930F9A109B0A9204A80B9388
:100F500007F050F8C7B2132F28D90C2006F024FD53
:100F60004FF0000947E79BF86430B74F022B43D09E
:100F7000032B7FF45EAE02F025FCEFE4B34B03EBF2
:100F8000071393ED000AD3ED01BA93ED02BA93ED86
:100F9000038A12E7B9F1240F7FF42BAF238813F0F3
:100FA00018097FF46CAD06F053FBD7E408AB0FCB08
:100FB000A64E3F0106EB070E8EE80F0007F1B400C6
:100FC000102208A902F0ECFA4FF0000913E7238879
:100FD0009F4A022B00F03A82002B7FF450AD022191
:100FE00004209946118006F0DFFCB7E4DBB223E76A
:100FF00000F0B4FB8146B1E497F87930002B40F063
:101000003B814FF01309A9E408A90DF10F0006F088
:101010009FFE002840F0C3804FF002099EE48D48F7
:1010200005F0CCFE397A032900F062831E2902D034
:1010300002297FF45AAC884805F0C0FE55E43820F8
:1010400005F0ACFE6AE4844805F0B8FE16E403F04F
:10105000B7F8C00702D54FF00D097FE47F4B7C4FF6
:1010600093F8029004202080B9F1000F7FF4FDACCA
:10107000019003F065F99AF87A30019823F0100393
:101080008AF87A3005F096FA032005F093FA04F016
:10109000BFFDBB78002B7FF461AC05F09DFB04F035
:1010A000ABF805F0ADFCBB78002B7FF457AC48469D
:1010B000A7F8009003F0F6F850E4502240F2AE3169
:1010C000384602F089FA48B93946502240F2AE302B
:1010D00087F8009002F064FA02F0EEF9604A614984
:1010E000614805F06BFE5D49604805F067FE5D20D4
:1010F00005F054FE06F07CFA5D4805F05FFE5620D0
:1011000005F04CFE4E2005F049FE5A2005F046FE43
:101110002C2005F043FE3F214F4805F04FFE2C20C8
:1011200005F03CFEC8214C4805F048FE5D2005F066
:1011300035FE06F05DFA11E45146474805F03EFEE3
:101140003A2005F02BFE08A806F03CFA5D2005F0D9
:1011500025FE06F04DFA082F1AD00137FFB20AF12A
:10116000010A9FE5434805F029FE3A2005F016FEE6
:1011700008A806F027FA5D2005F010FE06F038FA00
:10118000EBE702460720914606F000FAFFF7E6BBC0
:10119000B146ACE5352005F001FEFFF7B4BB9DF884
:1011A0000F302E4FFA5C01333D2A8DF80F307FF45B
:1011B0005CAC0DA90DF10F0006F0CAFD00283FF44C
:1011C0002BAF9DF80F3013F80790B9F1000F7FF4A3
:1011D0004CACDDED087AF4EECA7AF1EE10FA3FF786
:1011E00044AC9DED0D8AFCEEE77AB5EEC08ACDEDFC
:1011F000017AF1EE10FA9DF8047000F19581632FE9
:1012000040F23A81A7F16403DBB2042B40F2F38091
:10121000092B7FF62AAC01220A3BDBB2042B02F138
:10122000010140F2CF80092BCAB27FF61EAC052A1D
:10123000F2D11AE4342005F0B1FDFFF764BB33208E
:1012400005F0ACFDFFF75FBBE80C00203009002083
:10125000A00D0020D0EA0008C8EA0008882E00206F
:1012600018EB000814EA000824EB000834EB00082F
:1012700038EB0008F4EA000807F165010DA80895AD
:1012800009950A950B950C950D950E950F95109552
:10129000119502F069FF9DF82820D24BCDED0FAAE1
:1012A00042F00102DB698DF8282008A90DA80B93F4
:1012B000CDED08AA8DF83050CDED09AA04F0D6FE88
:1012C000D7F86D309FEDC88ADFF818A307EE103A03
:1012D000BB68B8EEC77A06EE903AC7EE267A08A940
:1012E0000DA877EEA97ACDED0F7A04F0BFFE04F0D9
:1012F0009DFCDDED0F7ABD4B8DF8285077EEC87A56
:10130000002208A90DA8CDED0F7A089305F0CCFBBB
:1013100001287FF423ABB6490DA802F025FF9DED0F
:101320000F7ADFEDB47A8DED088A77EE277A08A977
:101330000DA8CDED0F7A04F099FEDDED0F7AAE4BDE
:10134000089337EEC88A002208A90DA88DED0F8AF0
:1013500005F0AAFB01287FF401ABA84BA74A1B7834
:10136000EBB11570A64AD8F808301360052005F0D7
:10137000A7FD9DF82830CDED0FAA43F0010308A981
:101380000DA88DF8283004F071FE08A99D4804F0DE
:101390006DFE04F04BFC05F01FFAFFF7DFBA984A28
:1013A000D8F808301268B9688AF806009B1A07EE68
:1013B000903A06EE901AF8EEE77A87EEA67A8AED72
:1013C0001A7AD3E7032A00F0A881042A00F0958155
:1013D000022A00F098815BF8232007EE902A68EE3D
:1013E000277A894AF4EEC97AF1EE10FA16DD4FF049
:1013F0000C09FFF7B3BA1A1D0BEB8202824952683F
:1014000007EE902A68EE277AF4EEC97AF1EE10FA28
:10141000EDDC18EE102A41F8232004E002EB8303F0
:1014200018EE102A5A6105F0B1FFFFF797BA02F0E3
:10143000C7FE10F001097FF40EAE032006F0B4FAE7
:10144000AAF8009002F07CFFFFF788BA04F00AFCCB
:101450000520B94606F0A8FAFFF780BA23462046D1
:10146000FFF7A8B83146A022674802F0B5F8002877
:101470007FF424A8FFF71AB818EE100A09F0B8FB99
:1014800041EC100B0AF024FA51EC100B09F0DCFED1
:10149000C0B2212F3FF6E9AA01A353F827F000BFFD
:1014A00027140008EB160008E1160008CD16000806
:1014B000BD16000899160008831600086B0A00087C
:1014C0006B0A00086B0A00087D16000873160008F6
:1014D0005F1600084B160008311600086B0A00085A
:1014E0006B0A00086B0A00086B0A00086B0A000808
:1014F0001D160008BB150008AB150008A51500084F
:101500009B150008911500088B1500087715000839
:101510006B0A00086B0A0008511500085F150008E7
:1015200041150008311500084FF00409FFF716BAFD
:101530009BF89030D0B143F001038BF8903072E704
:101540009BF88F30E0B143F002038BF88F306AE7ED
:1015500018EE103A2D4A136003F01AFC63E718EEF8
:10156000103A2B4A136003F013FC5CE723F00103ED
:101570008BF8903057E718EE103ACBF89C3052E7D2
:1015800023F002038BF88F304DE7ABF89A004AE75F
:1015900018EE103A1F4A136045E718EE103A1E4A3B
:1015A000136040E78BF891003DE79BF88F3070B1F6
:1015B00043F010038BF88F3035E79BF88F3058B12C
:1015C00043F008038BF88F3005F01AFA2BE723F06D
:1015D00030038BF88F3026E723F008038BF88F3029
:1015E000F2E700BF740C00200000484300005C4399
:1015F000BC0D00206666E63F000040410000002070
:101600000C050020880D0020E80C00206F0D002044
:10161000730D00207E0D00207A0D00209BF88F3086
:1016200070B1D9064A4A06D44FF00A09FFF796B9B5
:101630008BF86400F7E643F0200382F88F30F2E67F
:1016400023F020038BF88F30EDE69BF88F3058B1F4
:1016500043F001038BF88F3002F0A8FDE3E618EEAB
:10166000103A3C4A1360DEE623F001038BF88F301A
:10167000F2E718EE103A384A1360D4E68BF87E0091
:10168000D1E69BF88F3078B163F07F038BF88F3011
:10169000002003F08BFDC6E69BF88F3048B143F085
:1016A00040038BF88F30BEE603F07F038BF88F305A
:1016B000EEE723F040038BF88F30B4E69BF88F30D1
:1016C00048B143F004038BF88F30ACE68BF87C0014
:1016D00003F010FCA7E623F004038BF88F30A2E69A
:1016E0008BF87B0003F006FC9DE68BF87D009AE604
:1016F000302005F053FBFFF7F8B8143318EE102A2A
:101700004BF823208FE628EE288A0A3328EE288A11
:1017100018EE102A4BF8232085E6F1EE487A0BEB01
:10172000830317EE902ADA637DE6012005F068FE58
:10173000FFF771BAFF2005F063FEFFF76CBA232BA9
:101740007FF493A9022005F05BFEFFF764BA00BFA7
:10175000E80C00206B0D0020670D00202DE9F04FF4
:101760002DED0C8BDFF85CA2914FABB06022002115
:10177000504606F07DFC8F4B3D7807CB1B88AAF8BE
:101780000D308C4BCAF801002433242DCAF8051003
:10179000CAF80920099300F017811E460FCE11AC3C
:1017A0000A940FC4002233682360002113468DF889
:1017B0003F20079210914FF00009CDF82090CB46C2
:1017C000C8464C46CDF81090CDF80890CDF8009062
:1017D000DFED798ADFED799A9FED799A002D00F09F
:1017E0002281A5F14102D2B2192A00F221830133EC
:1017F00010A90DF13F008DF83F3006F0A9FA00283E
:1018000000F01D839DED108A18EE100A09F0F0F922
:1018100041EC100B0AF05CF851EC100B09F014FDD0
:1018200086B207EE906AF8EEE77A78EE677A67EEAE
:10183000A87A17EE900A09F0DBF941EC100B09F0D9
:1018400057FF51EC100B09F0FFFC472D80B229D057
:101850004D2D40F09080002840F0FE821E2E00F2B8
:101860001681DFE816F0FE00FE00FE00F300F30034
:10187000F300CE001401C600C600140114011401C7
:1018800014011401140114011401140114011401B0
:1018900014011401140114011401140114011401A0
:1018A0001401FE00632E00F2F280DFE816F0EA0178
:1018B000EA01EA01EA017102F000F0000D021902EA
:1018C000F000E200F000F000F000F000F000F000A6
:1018D0002502250225022B022B02F000F000F00069
:1018E000F000F000F000E200F000E200F000F00094
:1018F0003202F000F000F000F000EA01F000930185
:10190000F000F0009A01F000F000F000F000F000AC
:101910009A01F000F000F0007102B701B701B701C1
:10192000B701B701B701F000BD01F000F000F00011
:10193000F000F000F000F000F000F000F000F00027
:10194000F000F000F000C301F000F000F000D10161
:10195000D701D701D701F000F000F000F000F0004F
:10196000F000DE01DE01E20040024002F00047022A
:1019700053026B026B02443D162D00F28880DFE8B3
:1019800015F0F700FC000101860006010B011301B0
:101990001B0124018600BF008600C600CB00D000DA
:1019A000D500DA00860086008600E500EE00A10082
:1019B000882E0020740C00200000C8426F12833A69
:1019C00000007F43D40D00201D460FCD11AC0A94BA
:1019D0000FC42B6823600122002000210323FD781F
:1019E00010908AF8012007928AF802108DF83F3093
:1019F000E1E6092E52D100230D228AF80A309346DF
:101A000002E001235A46089344FA02F3DD0700F18D
:101A10002582012393401C43A4B29DF83F30FD5C16
:101A2000002D7FF4DEAE029B23B1009B002B08BF8C
:101A30000223009318F0200F00F0C581CB4BDAF899
:101A400034209A4240F3BF811B2521E0042E00F090
:101A5000FD81052E30D100230C228AF80B309346ED
:101A6000D2E7002E00F0A981012E20D10B2293464F
:101A7000CAE7002800F0FA81F3B21C2E8AF8003081
:101A800002D01E2E40F08B810A2800F09081142590
:101A900028462BB0BDEC0C8BBDE8F08F9AF80A30CD
:101AA0000D2243F040038AF80A309346ACE70B223C
:101AB0008AF809609346A7E710230C228AF80B30B6
:101AC0009346A1E7029B8AED158A0C2243F004039A
:101AD0000293934648FA02F3D80700F1E781A44B3A
:101AE0001341D90705D5B5EEC08AF1EE10FA00F121
:101AF0001F820123934043EA08081FFA88F88CE705
:101B0000FDEEC87A0522CAED0D7A9346E2E7062279
:101B10008AED0E8A9346DDE70D228AED0F8A934601
:101B2000D8E707228AED108A9346D3E708228AED88
:101B3000118A9346CEE7B4EEC98AF1EE10FA00F3AB
:101B40004E8209228AF848609346C3E7029B8AEDD9
:101B5000138A0A2243F0010302939346BAE7029BD9
:101B60008AED148A0B2243F0020302939346B1E7F5
:101B70001022AAF810609346B5E712228AED058A72
:101B80009346B6E700228AED068A9346A2E7112221
:101B90008AF812609346ACE7049B8AED078A01221B
:101BA00013430493934695E7049B8AED088A022227
:101BB0001343049393468DE7049B8AED098A03221D
:101BC00043F004030493934684E704228AF83060C8
:101BD00093467FE74FF0070B002840F03D815A46BF
:101BE00012E7009B002B40F02282312E00F0608132
:101BF0000A2800F0538107EE900AF8EEE77AF4EE37
:101C0000E97AF1EE10FA7FF542AF4FF001090822B0
:101C100003238AF8079093460093F5E6363E8AF848
:101C200008604FF0090BD7E700287FF430AF0A2295
:101C30009346E9E64F4B93F89030D9077FF527AFED
:101C40004C238AF8013002234FF0010B0093C3E7C5
:101C500050238AF801304FF0010BBDE702238AF8C8
:101C600001604FF0010B0093B6E7002800F0F88008
:101C70000A287FF40CAF5A2E3FF409AF0422934692
:101C8000C2E6009B002B40F0D281F3B2262E8AF8E8
:101C90000130394940F0FD80A0F1140292B21E2AB1
:101CA0003FF6F5AE354D25FA02F2D6077FF5EFAED9
:101CB000334A6433A2FB002003EBD00301224B70B4
:101CC0000223934600939FE62A4B93F89030DB075C
:101CD0007FF5DDAE01238AF80D304FF0090B7BE76D
:101CE000244B93F89030DE077FF5D1AE00238AF8BD
:101CF0000D304FF0090B6FE7113E8AF806604FF088
:101D0000020B69E7C6F115068AF803604FF0060B6F
:101D100062E7184B93F89030DD077FF5B8AE2123CA
:101D20008AF8013002234FF0010B009354E7C6F10B
:101D30005E068AF802604FF0050B4DE70D4B93F8F5
:101D40009030DA077FF5A3AE01238AF80E304FF00A
:101D50000C0B41E7074B93F89030DB077FF597AE0C
:101D600000238AF80E304FF00C0B35E78096980070
:101D700061030100E80C0020D40D00200104104094
:101D8000CDCCCCCC623E8AF805604FF00B0B23E73C
:101D9000F3B21C2E8AF8003006D01E2E04D05C2E22
:101DA00002D04FF0000B17E700287FF46DAE184407
:101DB00000228AF80000934626E603230B228AF8C5
:101DC0000930934620E6079B002B5DD19AF802303C
:101DD000BA4A012B00F0EA80B94BB9495B783BB9AC
:101DE00018F0010F00F0F880D378012B00F0BB81D0
:101DF00008F480739BB21BB9B14A1269CAF8442037
:101E0000E20405D59AF80120AC49012A00F0B98016
:101E10009AF80030042B00F0C0809AF80130A3F14A
:101E20005102022A5AD818F0800F4DD11C252FE6F6
:101E3000012528462BB0BDEC0C8BBDE8F08F0225A8
:101E400028462BB0BDEC0C8BBDE8F08F20230C2274
:101E50008AF80B309346D7E5172519E6152517E6BE
:101E60005A3E03228AF804609346CDE5009B002B7E
:101E700040F0DD80F3B21C2E8AF8003021D01E2EF7
:101E80001FD0012200928AE718F0010F52D11625C7
:101E9000FEE502234FF0010B00939DE6012308228B
:101EA0008AF80730032393460093ADE51925EFE543
:101EB0009DF800308AF807300822032393460093E8
:101EC000A2E50122009272E7522B00F05581532BBC
:101ED00000F05B8128F080081FFA88F89AF8063035
:101EE000002B73D0012B0CBF012300230D930CBFDB
:101EF000002302230C930CBF022301230B939AF8B7
:101F00000330012B6DD0009B032B00F08180DFF8A4
:101F1000B0E10EF138070FCF16AE0FC63B68336045
:101F2000A30520D59AF80800062812D91D25AFE58B
:101F30000425ADE59AF80320604B012A7FF458AFE1
:101F4000D3ED067A9FED5F7A67EE877AC3ED067A66
:101F50004EE79EF80730834205D016A905F03AFAFD
:101F6000002800F0E8809AF80020544E0A2A00F079
:101F7000AD805C2A5DD1029B002B40F016811A25B2
:101F800086E5002B3FF452AF0B7828F480780022CE
:101F9000042B1FFA88F80A82A0D118F0400F3FF4F2
:101FA00045AF28F040081FFA88F836E7009B022B5F
:101FB0007FF41EAF5378502B3FF41AAF002B3FF441
:101FC00017AF18F0010F3FF462AF11E70B93022334
:101FD0000D9301230C9392E74B69936108E7262543
:101FE00056E539499FED377A0298002340FA03F20B
:101FF00012F0010F03F1010305D0D1ED007A67EE75
:10200000877AC1ED007A052B01F10401EED17AE760
:10201000B9F1000F7FF47BAF9AF80730012B7FF402
:1020200076AF029B042B3FF472AF252530E51825CF
:102030002EE5009B032B17D0029BABB1099996F8B4
:1020400004E006F14C03002016AE029F0741FF0793
:1020500073D40F681F600130052801F1040103F1FA
:10206000040306F10406F0D11E2A00F0E780352AA9
:1020700000F094801C2A00F0EE809AF80130502B7A
:1020800000F02D814FF0000B009A022A00F004812D
:10209000079B009913F001020ABF28F4487328F047
:1020A000210323F001039BB219B123F4E0539B04F5
:1020B0009B0C002B00F0D7802425E9E4D40D0020F0
:1020C000740C00203333CB41200E0020029B002BE8
:1020D0003FF455AF18F0500F3FF4A8AEB06B08F0C6
:1020E00087FD41EC100B09F0F3FB51EC100B09F0EC
:1020F000ABF8C0B206283FF619AF96F83030142B73
:1021000006D0022B7FF4C3AC18F0800F7FF4BFAC75
:1021100028F050081FFA88F8002800F0498101389B
:102120005FFA80FBC04E584606F11C0105F052F9DB
:10213000002840F026810725AAE4352A8BD0BEF17D
:10214000000F72D196ED006AD1ED0A6A93ED007A24
:10215000D1ED0F7A76EE266A36EE877A77EE277A19
:10216000C3ED007A77E7D2ED067A9FEDB07A67EE9D
:10217000877AC2ED067A3BE618F0400F3FF456AE80
:1021800028F0C0081FFA88F8A8E618F4005F3FF4AA
:102190004DAE28F402581FFA88F89FE69AF80130ED
:1021A000012B7FF66AAF1E2572E406F14C03099AF3
:1021B00016A8002118E092ED006AD0ED006A93EDB8
:1021C000007AD2ED0F7A76EE666A36EEC77A77EE4F
:1021D000677AC3ED007A0131052902F1040200F1AA
:1021E000040003F1040317D0029E0E41F607E2D467
:1021F000966A1E60EFE78E49099A002302981841FB
:1022000010F0010F04BF106808600133052B02F1C4
:10221000040201F10401F1D14FF0000B9AF80130F2
:10222000502B7FF431AF1F2532E493ED007AD1EDCE
:10223000007A77EE277AC3ED007A0CE77C49072015
:1022400005F0C8F800283FF476AF029B002BD2D1EE
:102250009B4600931CE77649062005F0BBF8002852
:102260003FF469AFF1E7DFF8D8811C9398F890103C
:102270001D93C9071F9304D59AF80D106A4B0129C5
:1022800032D0002A00F0058124F04904002C00F02F
:10229000D9801025FFF7FCBBD3B1212B01F0D180F1
:1022A0004C2B00F08D87DAED067AF5EE407AF1EEF0
:1022B00010FA3FF4ECAD532B00F29380512B80F0D9
:1022C0008B80022B19D0032B1BD0012B7FF4E0AEA7
:1022D000029B002B14BF022300230093D8E6029B2D
:1022E000002BA0D19B46D3E6D3ED137AB6EE007A4D
:1022F00067EE877AC3ED137AC3E7079B43F00403C5
:102300000793029B002B3FF43AAE0B9A0C990123E2
:1023100003FA02F28B401A43029B134202D120259A
:10232000FFF7B6BB0B99434E0C9F0AEB810006EBFF
:102330008101D1ED098A3F4990ED137A3A4E0AEBBB
:102340008703D3ED137A01EB870393ED098A08F035
:1023500080039BB277EE688A37EEC88A002B00F0C4
:10236000C38728F08008142206F14C0109981FFA4F
:1023700088F80BF0A3F9002840F097872125FFF794
:1023800087BB96F83000099A06F14C030021029EA3
:102390000E41F70704D514280DD01E6843F8306CA1
:1023A0000131052902F1040203F10403EFD135E7FD
:1023B0009AF808B0B6E692ED006AD2ED0A6A93ED9B
:1023C000007AD2ED0F7A76EE666A36EEC77A77EE4D
:1023D000677A43ED0C7AE3E728F010081FFA88F8D3
:1023E00056E68D2B05D01CD98E2B06D08F2B7FF473
:1023F0004FAE079A42F0100207927233DBB2012B04
:1024000003D8079B43F008030793029B002B3FF47C
:10241000B6AD1422084909480BF050F90028ADD098
:1024200036E68C2BE9D033E6D40D00203333CB4194
:10243000F00D0020740C0020200E0020980C0020CD
:10244000E80C00209AF80030352B02D0002B7FF4E6
:1024500020AF4B4B4A499C7A5B7A98F88F200E69E3
:10246000DAF81800DAF834101C96234343F004031A
:102470008DF8743093061B901E91424E40F1DE861B
:10248000304601F035FE002800F0D8860F25FFF712
:10249000FFBA98F88F309F0713D59AF80130013BA7
:1024A000022B03D9079B43F040030793029B1BB108
:1024B000009B022B00F0D086314B9A7A102A00F054
:1024C000D386079B03F040042D499AF80230DAF8CE
:1024D00034204B70CA611E9213B108238DF87430FA
:1024E00027499AF80E20DAF818304B611B932649D9
:1024F000234B002A34D191ED110AD3ED047AF4EE86
:10250000407AF1EE10FA02D1079B9E0612D51C4BC1
:10251000987A38B1079B1D0604D474B39FED1B0A4B
:1025200002F018FC1649DAF844300B61002200234F
:102530000A624B7314B9124B1B691C93104A9AF828
:1025400048301376089B1646002B6ED098F86430FE
:10255000002B6AD00E4D2B7DE3B91225FFF798BAF8
:10256000012AE7D1088A496C5A7307EE900AF8EEFF
:10257000677A1961C3ED087ADCE702F0EBFBD1E77B
:10258000740C0020200E0020D40D0020000000005C
:10259000A00D00202B880024022B2194209422944B
:1025A00023942494259426942794289429943CD009
:1025B00003F03CFB7A497B4F25A801F0D5FD4FF095
:1025C000000CCDF89CC00DF1940EBEE80F000FC7B3
:1025D0009DF88830DEF80020F1693A6043F001038D
:1025E000239125A820A9CDF880C0CDF884C08DF80E
:1025F00088308DF8904003F039FD142004F060FC21
:1026000069486A496A4B8022C82646630C705A831F
:1026100003F00CFB2C462A88664B002A00F0BC8590
:1026200003F0F6FAA378002BF5D0634B9AF80B0071
:102630009B7A624D604C834205D09DED1C0A02F0EE
:1026400089FBEB7AA3725C4B5B4A9DF874109B7A12
:102650009AF80A40527A0B43A2428DF874300DD09A
:10266000544D2B88022B05D003F0E0FAAB78002BF9
:1026700000F09985504A9AF80A3053724E4B9DF8F3
:1026800074205B7A9AF80010134304298DF8743093
:102690004A4A00F0698548499AF806204A71009A2A
:1026A0009AF803308B70032A444B00F04485424B68
:1026B0009AF80870DB79404EBB4209D016AC0FCCBB
:1026C00006F138050FC523682B60F77101F06EFD28
:1026D0009AF8003038489AF804109AF80520C1702A
:1026E000262B0271044600F0088540F2ED845C2B35
:1026F00000F0E084662B00F0D384282B03D10999E5
:10270000072004F055FE9AF801302B4A2B4E137027
:10271000502B02D00099022954D0274B9AF8095027
:102720001D721E46002D3FF4B3A903F07FFA337AE1
:10273000032B204B2BD0198800246422012002296E
:102740001A725A729A7230707471F4707470F471F3
:10275000B472747211D006F13801204604F03AFECA
:1027600000283FF4E8AC01F021FD20469FED140A5B
:1027700002F006FB204604F037F801F03FF808208D
:1027800005F012F90C4B00251D72FFF781B91B886B
:10279000022BF7D0082001F0DFF903F039FAF1E756
:1027A000BC0D0020880D0020000001409C0D002081
:1027B00000040240A00D0020740C0020D40D002065
:1027C00000000000012B00F00284002B00F0F383D6
:1027D000991E012940F29881A3F15101022900F2CA
:1027E0002A81D6ED107A92ED107AD17892ED158A81
:1027F00025AC77EE877A0023012937EE888A63605B
:102800002593A360E360236100F09080D2ED1A7AF3
:102810001FED159A38EE278AF0EE499ADAED157A0F
:10282000F4EEC87AF1EE10FA3FF7A8ADDDED137AB9
:10283000B4EEE78AF1EE10FA65DCCDED277A9AF86E
:102840003020A74B12B9012283F83020A44D9FED10
:10285000A5AA00269AF83020F3B29A4240F2B4803A
:1028600007EE903AD5ED136A95ED147A9DF8743021
:10287000F8EEE77A43F0010347EEA96A1BA9204668
:1028800007EE897A8DF87430CDED256A8DED267AC4
:1028900003F0ECFB9DF874308DED278A43F00103C3
:1028A0001BA920468DF8743003F0E0FB8E4B1B789B
:1028B000532B65D09DF874306A6D279223F0010385
:1028C0001BA920468DF8743003F0D0FB864B1B7893
:1028D000522B47D0844B1B79002B40D1DDED137A6E
:1028E000B4EEE78AF1EE10FA39D5CDED277A9DF8EE
:1028F00074301BA943F0010320468DF87430013673
:1029000003F0B4FBA6E70A9E0FCE25460FC59DF83F
:10291000743032682A6043F001031BA920468DED14
:10292000278A8DF8743003F0A1FB88E79DED137AB8
:10293000D6ED157AD6ED139A9DED116A96ED149A9F
:10294000DDED126A38EE078A77EEC77A79EEC69A1D
:1029500077EE887A39EE669AC6ED157A5EE78DEDE8
:10296000278AC4E7614BDAED0E8A1B88022BB1D0AF
:1029700003F05CF9B0EE680A002000F0B3FEA9E7AE
:10298000D5ED0F8A78EE688ADAED157AF4EEE87AFA
:10299000F1EE10FA24DB9DF87430CDED277A23F0A8
:1029A00001031BA920468DF8743003F05FFB9DF8EE
:1029B00074308DED278A43F001031BA920468DF862
:1029C000743003F053FB81E70FCC494E2568344641
:1029D0000FC425600FCE099C0FC4336823609CE6AA
:1029E0009DF87430CDED278A23F001031BA9204602
:1029F0008DF8743003F03AFB9DF874308DED278A22
:102A000043F001031BA920468DF8743003F02EFB20
:102A10009DF8743078EE8A7A43F001031BA92046B2
:102A2000CDED277A8DF8743003F020FBD5ED0F7AC9
:102A300078EEE78AA8E7212B00F053824C2B40F078
:102A40003982DAED0F7A9FED2B6ADFED2B6A0A9F50
:102A5000D6ED108A96ED088A96ED0E9AD6ED079A75
:102A600096ED09AA67EE867A0FCF87EEA66A25ACA7
:102A700025460FC53B682B609AF81250B1EE087AD4
:102A8000F4EEC78AF1EE10FA16EE100A58BFF0EE17
:102A9000478A08F0ADF841EC100B08F0E1FE53EC6A
:102AA000102B18EE100ACDE9002308F0A1F8DDE99B
:102AB000002308F0F1F808F0E7FB0AEE900A03F0B3
:102AC000B5F80E4B1B8807EE903AF8EE677ACDED1D
:102AD0001C7A002B40F017810825FEF7D9BF00BFF4
:102AE000D40D0020CDCCCC3E740C0020A00D0020D5
:102AF000200E0020DB0F494000003443D00D0020A1
:102B0000BD3706B5DB0FC9400C9B0999D6ED109A6D
:102B10009A000B9B06F11C04A0189B008F1890EDE7
:102B200000BAD7ED00AA0090CD181C443244D4ED71
:102B3000008A95ED00AA92ED139A33447BEE2AAAFF
:102B400093ED138A38EE8AAA39EE6A9AB1EE4BBA3F
:102B500038EE4A8AF1EE688A6BEE097A48EE887A96
:102B60002BEE088A17EE900A18EE898A08F040F8D2
:102B7000CDE9020118EE100A08F03AF89DED021BAB
:102B800041EC100B08F0E0FE51EC100B08F07CFB60
:102B9000079B590708EE100A40F1A9805FED287ADB
:102BA000B4EEE78AF1EE10FA03DB5FED2A7A38EE35
:102BB000678AD8F8833079EEA97A07EE103A77EE73
:102BC000C77A67EE877A17EE900A08F011F841ECA1
:102BD000100B08F0BBFEF6EE007A68EE277A53EC95
:102BE000102B67EEA97ACDE90223F0EEE77A17EE13
:102BF000900A07F0FDFFDDE9022308F077F941ECC8
:102C0000100B08F091FC51EC100B08F01DFB83B287
:102C10000BEE903A002B00F0DA819DF874301A0721
:102C2000B8EEEB7A09D5DDED1B7A67EE877A23F0F3
:102C300008038DF87430CDED1B7AC8EE079A0D9B12
:102C4000099ADFF8C4839B0002EB030B534401266F
:102C50004FF0000993ED136ADBED005A9FEDDF9A08
:102C600036EE656AF0EE007A86EE07CA49EEE97A3A
:102C7000F1EE006A77EEA66A29EE899AB6EE008A2E
:102C800029EE269A27EE888A1BEE902AB3B29A4242
:102C900009F1010340F29B81B9F1030F00F2B68103
:102CA00029EE287A69EE0B7A08EE0B7A5FFA83F93F
:102CB00058EE287AB0EE47BAF0EE678A3AEE287AF4
:102CC0007AEE8B7A85ED007AC7ED007ADBED007A3B
:102CD000C34877EE8C7A1BA9CBED007A03F0C6F9D6
:102CE00098F802300136002BCED0BE4E72E6DFEDF2
:102CF000BE7AB4EEE78AF1EE10FA9CBFDFEDBB7A44
:102D000038EE278A55E7D6ED136A9DED117A9FEDCF
:102D1000B86A07EE903A36EEC77AF8EEE77AB0EE88
:102D2000C77A67EE897AB4EEC67AF1EE10FACDED85
:102D30001B7A2FD416EE900A07F05AFF064619EEBA
:102D4000100A0F4607F054FF3246804689463B463C
:102D50003046394607F0A0FF424606460F464B462E
:102D60004046494607F098FF02460B463046394632
:102D700007F0E0FD41EC100B08F0E8FD51EC100B02
:102D800008F082FADDED1B7A07EE100A67EE877A0B
:102D9000CDED1B7A00269FED97CA9FED97BADFED28
:102DA00097BADDF8289037464FF00108002F00F061
:102DB0006381002D99D0DDED137A77EECB7A013D5A
:102DC000EDB2CDED137A1BA9484603F04FF9DDEDC6
:102DD000137A9DF8743077EE8B7AF5EEC09A43F053
:102DE0000103F1EE10FACDED137A8DF874304FD463
:102DF0007FF725A8DDED117A79EEA77A38EE277AEC
:102E00007AEE277A37EE0C7AB4EEE77AF1EE10FA22
:102E10008DED257A02D8CDED257A01271BA9204614
:102E200003F024F902F002FF731E07EE103ADAED08
:102E3000157A9DF87430B8EEC77A23F0010347EE97
:102E40006A7A1BA92046B0EE490A8DF87430CDEDA0
:102E5000277A03F0E9F99DF87430119A259243F02E
:102E600001031BA920468DF8743003F0FFF807B169
:102E70002DB11BA9484603F0F9F8139B2793F4EEF4
:102E8000EB8AF1EE10FA00F202813CEE08CA8DE7FF
:102E9000DDED117A79EEA77A37EEC87A77EECA7A45
:102EA00037EE4C7AB4EEE77AF1EE10FA8DED257A32
:102EB000B4D8B0E79DF87430079A4C3643F0040359
:102EC0001BA930468DF8743003F0EEFD00283FF466
:102ED00081AD01287FF421AC4949414801F044F912
:102EE0001BE4DDED137A9FED447A0A9877EEC77AFA
:102EF0001BA9CDED137A03F0B9F802F097FE414B10
:102F00001B8807EE903AF8EE677ACDED1C7A002B1D
:102F10003FF4E2ADD6ED136A9DED117A96ED098A84
:102F20009FED336A07EE903A36EEC77AF8EEE77A0D
:102F3000B0EEC77A67EE887AB4EEC67AF1EE10FA90
:102F4000CDED1B7A2FD416EE900A07F051FE044601
:102F500018EE100A0D4607F04BFE224606460F46B5
:102F60002B462046294607F097FE324604460D467A
:102F70003B463046394607F08FFE02460B46204658
:102F8000294607F0D7FC41EC100B08F0DFFC51ECB0
:102F9000100B08F079F9DDED1B7A07EE100A67EEE9
:102FA000877ACDED1B7A0F489AED090A1BA90646D0
:102FB00003F03AF90EE59DF874304C3643F0010306
:102FC0001BA930468DF8743003F050F802E505482F
:102FD0001BA9064603F04AF8FCE400BFABAA2A3E50
:102FE000980C0020200E0020BD370635DB0FC940AD
:102FF000ACC52737000000006F12833A4703803FBB
:10300000BC0D0020D00D0020A00D002007EE906A1E
:10301000F8EEE77A4FF0000967EEA97A17EE900A0A
:1030200007F0E6FD41EC100B41EC1D0B08F01CFA1B
:1030300051EC100B08F028F9B0EE4D0AF0EE6D0AD5
:1030400008EE900A08F0ACFB51EC100B08F01CF9EC
:10305000009BD4ED007A93ED007A06EE900A28EEFC
:1030600087BAF1EE677A26EE877A08EEA77A16EE2F
:10307000A7BAF0EE478A21E6DDED137A77EECB7A38
:10308000013677EEEA7AB6B2CDED137A9BE698FB7D
:10309000F6F307EE903AF8EEE77A07EE88CA85E68F
:1030A00000230365C36443658365C36501F07EF84F
:1030B000FFF729BBB84D0FCD4C340FC42B682360EC
:1030C00001F074F8FFF71FBB1C2B1CD01E2B1AD06D
:1030D0000A2B7FF418ABB149584604F069F9E3793B
:1030E0005B457FF410ABAD4D0FCD38340FC42B686A
:1030F000236001F05BF8FFF706BB0999062004F096
:1031000057F9FFF700BB9DF8743043F001038DF8C9
:103110007430009B1BB11BA99F4802F0A7FF9F4D75
:103120009E481BA902F0A2FF0FCD099C0FC42B687B
:103130002360FFF7E8BADA798A710AB900225A6582
:10314000B9F1000F20D1964BDAED157A93ED1A7A8A
:10315000B4EE677AF1EE10FA3FF4A9AAC3ED1A7A39
:1031600001F024F8FFF7A3BA8E4B92ED0E8A1B886C
:10317000022B3FF490AA02F059FDB0EE480A00205D
:1031800000F0B0FAFFF787BAB9F1000F3FF48FAA49
:1031900000F018FBFFF78BBA4FF400721A8003F0AF
:1031A0001BFBFFF742BA600640F1598103F18043EF
:1031B00003F5013301221A8300232B73FFF75ABA58
:1031C00018F0400F3EF432AE18F4805F3EF4D7AEF4
:1031D00018F00E0F3EF42AAE18F0800F08D09AEDCA
:1031E000107AF7EE007AB4EEE77AF1EE10FA22D414
:1031F00018F0100F04D09AF83030032B3EF61FAEB3
:1032000018F4005F0FD0DAED0F7AF5EEC07AF1EE28
:1032100010FA3EF514AE9FED647AF4EEC77AF1EE43
:1032200010FA3EF70CAE28F4035828F01E081FFAD7
:1032300088F8FEF72DBF009DFEF72ABC594C564872
:103240001BA902F013FF2388FBB10FCE099C0FC40A
:1032500033682360FEF71CBC079B43F08003079391
:1032600003F04004FFF730B91B78079A013B022BAB
:10327000134615D812F040043FF426A943F020036A
:10328000079303F04004FFF71FB902F039F8002854
:10329000DBD02023238001F0D7F801F051F8D4E7E8
:1032A00012F040047FF410A9E8E7F378012B07D16E
:1032B000D6ED107A9FED3D7A67EE877AC6ED107AEB
:1032C000DAED106AB1EE007A26EE877A68EEA87A17
:1032D00057EE267A48EE487AF5EEC07AF1EE10FA0B
:1032E00008D52225FEF7D4BB04990A4266D12325CE
:1032F000FEF7CEBB17EE900A07F07AFC41EC100BFC
:1033000008F024FB53EC102BF0EE480AB0EE680AEC
:10331000CDE9042300F0D2F9DDE9042310EE100A10
:10332000164603F1004707F063FC0B460246394698
:10333000304607F0DBFD07F0A7FF1D4B9AED107A32
:103340005B7807EE900A032BB5EEC07A08BFF1EE6A
:10335000677AF1EE10FA164B05D5B1EE477A83ED98
:10336000107AF1EE677AB0EE687A08EE677A0B9B16
:1033700008EEA78A0AEB83020C9BF6EE007A27EE92
:10338000277A68EE277A0AEB830382ED077AC3ED8A
:10339000077AFEF77DBE00BF200E0020F00D002052
:1033A000740C0020A00D00200000A0423333CB415C
:1033B000D40D00200AD7A33B6F12833AF27828F08D
:1033C0000E08012A1FFA88F84DD00C9B9F1D0B9BFD
:1033D0009E1D0AEB87070AEB8606D7ED010A96EDDC
:1033E000010A78EE600A38EEC00A00F067F9D7EDFE
:1033F000010AB0EE408A96ED010A00F05FF978EE1E
:10340000407A1FED147A8AED100AF0EEE77AF4EEB6
:10341000C77AF1EE10FA7EF73BAEB6EE007AF4EE24
:10342000C77AF1EE10FA3EF7A9AF1FED1D7A20EE34
:10343000070AF4EEC07AF1EE10FA3EF79FAFFEF7FE
:1034400027BE18F0080F3EF4F1AC28F0080318F47A
:10345000E05F9BB23EF493AD9846FEF719BE0C4B6D
:1034600001225A83A8E69FED0B7A1C36049A1A4172
:1034700012F0010F03F1010305D0D6ED007A67EEDB
:10348000877AC6ED007A032B06F10406EED19CE79D
:10349000000402403333CB41704700BF704700BF88
:1034A000704700BF704700BFFEE700BFFEE700BFE8
:1034B000FEE700BFFEE700BF2DE9F843334B1A6972
:1034C000002A03DA3249334A59605A6003F0D8FAC5
:1034D00009283BD02D4B1A6942F000421A611A6943
:1034E000002A03DA2A492B4A59605A602A4C274E8F
:1034F00004F5806804F1010902E0A8452C461ED0BD
:10350000677803F0BDFA092804F10105F5D13269A5
:10351000224B22F4407232613269326132692344B3
:10352000C9EB030342F0010232611F7003F0A8FAF5
:103530003369A84523F0010333612C46E0D1134AD7
:10354000136943F000431361BDE8F8830F4C23690E
:1035500023F440732361236943F4007323612369D7
:1035600023F0F8032361236943F03A0323612369BD
:1035700043F48033236103F083FA236923F00203C9
:103580002361236923F0F8032361A3E7003C024091
:1035900023016745AB89EFCDEF000020010006084D
:1035A00070B49AB102440B4E95B2002211F8014B4F
:1035B0003454D309013043EA420280B254FA82F211
:1035C000A842D2B2F2D1725570BC7047014E054686
:1035D000F9E700BFF000002070B4BAB10A440D4E04
:1035E00095B20022745C00F8014BD309013143EA23
:1035F000420289B254FA82F2A942D2B2F2D1705D8B
:10360000801AB0FA80F0400970BC7047014E0D4638
:10361000F5E700BFF00000209FED0E0A01F1140352
:10362000F1EC017AF5EE407AF1EE10FA0CD0D0ED23
:10363000006A86EEA77AF0EEC77AF4EEC07AF1EE71
:1036400010FAD8BFB0EE670A994200F10400E7D142
:10365000704700BF9976967E9FED177A38B504467D
:1036600000F114050346F3EC017AF5EE407AF1EE31
:1036700010FA1CBF67EEA77A37EE277AAB42F2D179
:1036800017EE100A07F0B4FA41EC100B08F05EF9DF
:1036900051EC100B07F0F8FD00EE100AF7EE007A7F
:1036A00087EE807AD4ED007A67EE877AE4EC017ACF
:1036B000AC42F7D138BD00BF0000000060EEA00AA8
:1036C00040EE000A08B510EE900A07F091FA41ECBE
:1036D000100B08F03BF951EC100B07F0D5FD00EE94
:1036E000100A08BDF3EE047A60EE277A70B506463C
:1036F00017EE900A07F07CFA41EC100B07F024FE5D
:1037000051EC100B07F0A0FD80B2B8B10C4DAB78B6
:103710000446A3B96EB902F07BFA322003F0D0FB65
:10372000012C04F1FF3409D0AB78A4B2002BF1D006
:1037300070BD01F01FFEEB789B07EED570BD70BD2C
:10374000A00D0020084B93F88F0010F00100F0EE60
:10375000407A01D103F07EBA9FED040A012027EEE2
:10376000800A03F077BA00BFE80C00208B42213DAD
:10377000084B93F88F30DB07F0EE407A02D4032039
:1037800003F068BA9FED040A042027EE800A03F0D4
:1037900061BA00BFE80C00208B42213D084B00229B
:1037A00003F5A0711A605A609A60DA6010338B4298
:1037B000F8D14FF4A0720249B420FFF7F1BE00BF68
:1037C0003009002010B50B4C237E132B0BD90C2095
:1037D00004F0EAF8002319461846012220666166C3
:1037E000A366A27110BD044A02EB0313186859685E
:1037F0009B68F2E7740C00203009002070B40B4A7B
:103800000B480C4D0C4C0023002101260360436043
:103810008360C36003619371116651669166D166DE
:1038200011672E70236070BC704700BF740C0020BD
:10383000880D0020000000200C050020EFF310830D
:1038400072B6034A11780843107083F310887047EA
:1038500004050020EFF3108372B6034A1178084381
:10386000107083F31088704708050020EFF3108371
:1038700072B6024A107083F310887047ED00002082
:10388000F0B583B002F064FE904D064610B12B787F
:10389000002B6CD000F094FC8D4C074618B12378B7
:1038A000002B00F0A9802B78884A0BB1002E59D04C
:1038B0002378874A0BB1002F4FD0864C2368013301
:1038C000236023681B076ED02268834BA3FB02137F
:1038D000DB0803EB830303EB83039A423BD17F4A6C
:1038E0007F4B11685B6A7F4C9FED7F7A9FED7F6A0B
:1038F000DFED7F6A7F48804A057811FA83F12388DB
:1039000089B299423DBFC3F57F43FF335B18CB1AA1
:1039100007EE903AF8EE677A6B1C67EE877ADBB2B7
:1039200087EE867A022B037084BF00230370218008
:1039300067EE267AFCEEE77A17EE906A42F8256089
:103940001368506892686D4E6D4D03441344A6FB96
:1039500003235B082B6003B0F0BD1378013BDBB29F
:103960001370AAE71378013BDBB21370A0E7654B35
:1039700093F87A30D8068DD5634A12881421012A2B
:10398000297087D0614A1278002A83D1990604D51C
:1039900002F0DEFD00283FF47DAF02F063F9012064
:1039A000FFF764FF76E7584B5B7D002B8CD0584BBC
:1039B0001A78002A3DD1574E574DB26829688A427D
:1039C00082DC5649564F91F830104FF0000E01201E
:1039D000C7F800E0187011B104F032FAB26851482B
:1039E0002A603F4B3D49002202605B6A09684E4AEB
:1039F00011FA83F3138067E71423237000F0E0FBD0
:103A000000283FF450AF82075BD4030705D5474A2F
:103A100013889BB243F00203138041074AD4C207C4
:103A20007FF541AF414A13889BB243F020031380D6
:103A300039E72B4B294A5B6A12683B4E394DDFED63
:103A40002B7A28683349344F89683F6812FA83F328
:103A500032889BB293423DBFC2F57F42FF32D218FB
:103A60009A1A024407EE102AB8EE476A25483380B6
:103A700086EE277AC91B80682D4B2A60284A07EEFC
:103A8000901AD3ED006A254BF8EEE77A06EE100A9D
:103A900067EE266A87EE867A93F8303077EE267ADC
:103AA000C2ED007A0BB104F0CBF9224A224B126826
:103AB0001A6009E71D4A13889BB243F0080313807C
:103AC000ADE7019002F0CEF80198A6E7900E002035
:103AD000740E0020502F00201F85EB51B0240020D1
:103AE00000080040360E0020000020420000B443D1
:103AF0000000704204130020800E0020ABAAAAAA86
:103B0000D00D0020E80C0020A00D0020ED000020CA
:103B10007C0E0020BC0D00208C0E0020542E0020B6
:103B2000780E0020940E0020920E00200605002042
:103B3000380E0020980E00209C0F0020EFF310821A
:103B400072B604490B889BB223EA0000088082F316
:103B50001088704706050020EFF3108372B6044901
:103B60000A8892B21043088083F31088704700BF20
:103B700006050020000000002DE9F04F7E4C83B0C8
:103B80000221204602F06CFE78B90121204602F0A5
:103B900067FE10B903B0BDE8F08F00F05DFB4FF693
:103BA000FE73238203B0BDE8F08F744CA37DDA0767
:103BB00009D5734A127812F0010F724A4FF48061EE
:103BC00014BF518311839F0709D56D4A127812F0F3
:103BD000020F6D4A4FF0080114BF518311835E0735
:103BE00009D5674A127812F0040F674A4FF0200196
:103BF00014BF518311831D0700F19B80656B5F4BE0
:103C0000002D00F0CB8003F11C0898E8000F5F4EF8
:103C10009A69B6F800C01D6B0092DFF87CE19EF84F
:103C20000030012B00F0518100232268A375009819
:103C30006B69524910449842206011D901238B7559
:103C40004A6B6B69D279C71A0F604AB92A7E50490C
:103C500012F0010F0A6814BF02F1FF3201320A604C
:103C60006268464942449A42626013D98B7D486B30
:103C700043F002038B756B69D21A4A60C2794AB964
:103C80002A7E434912F0020F4A6814BF02F1FF3244
:103C900001324A60A26839494A449A42A26013D963
:103CA0008B7D486B43F004038B756B69D21A8A6075
:103CB000C2794AB92A7E364912F0040F8A6814BFC5
:103CC00002F1FF3201328A60E2682C4952449A4282
:103CD000E2600FD98B7D287E43F008038B756B69FA
:103CE000D21ACA602A49CA6800074CBF02F1FF32E3
:103CF0000132CA60226921495A449A42226123D87A
:103D0000BCF1040F33D0A38D1C4A013B9BB2A385A9
:103D100043B9204953630A780132D2B2202A0A708B
:103D200008BF0B70144B4FF6FD721A8203B0BDE84A
:103D3000F08F134B1B7813F0080F134B4FF0020258
:103D400014BF5A831A8359E78B7D287E43F01003F2
:103D50008B756B69D21A0A610D4A1369C1064CBF93
:103D600003F1FF330133BCF1040F1361CBD1A27D0A
:103D7000F3791340A375C6E7004001403C0E0020D4
:103D8000340E00200000024000040240A00D00207C
:103D9000BC0D002005130020EB000020BA4ABB48F0
:103DA00011780078884200F0DC801178B84A02EB84
:103DB000C1025A635388C72B40F2A88007EE903A9D
:103DC000F8EEE77AB34E727D012A00F0B5809FEDE0
:103DD000B27A67EE877AFCEEE77ACDED007ABDF82D
:103DE0000020AE48616BC36242630B88A3850A79E9
:103DF00094F82E10AA4B914200F09C80A94983F8B8
:103E00002E20C2EBC20201EB820119634A695208FB
:103E10001A61DA609A605A601A60A34B0A7E1B78B6
:103E20005340A24AE375D8074FF010014CBF1183ED
:103E300051839E4A9F074FF480614CBF1183518389
:103E40009B4A5D074FF480714CBF1183518313F07F
:103E5000080F964B97494FF0040214BF1A835A83F8
:103E6000256B636B28685F79497B8D4AF840A061B8
:103E700093F805800090686820FA08F8C4F81C8060
:103E8000A86893F8059020FA09F9C4F82090E8682A
:103E900093F805A020FA0AFAC4F824A093F805B014
:103EA000286920FA0BFBC4F828B0002933D09B798D
:103EB000012B07D0804B804A1B78013BDBB213708B
:103EC000002B67D0B6F800C0A7E67C4B7C4A1B6984
:103ED000127803F001039A423FF4A6AE794B1F46D5
:103EE0000FCF01974FF000078EF80070764FBE4657
:103EF000AEE80F00754A019F13883A68CEF800209B
:103F00009BB2724A43F0400313808DE6C823DFED75
:103F1000707A538056E79879009200F0B1FE009ACB
:103F2000B6F800C09369009302F11C08156B98E87D
:103F3000000F72E6196B70E7664A92ED007A67EE41
:103F4000877AFDEEE77A17EE902A1A44B2F5803FA1
:103F5000134680F28580952A00F38A805A229623A0
:103F60003FE72846009300F09DF9009B1B6B5B7EAA
:103F700063B1594A5949C823C72050635363138812
:103F800023F001031B041B0C13800D700420FFF7AA
:103F9000E3FDC7E64B4A524BD2ED006A1B68454A27
:103FA0009FED506A92ED0E7AD2ED137AD2ED185A47
:103FB000F8EEE66A05EE103A77EE277A86EE857A15
:103FC00077EEA57A77EE677AB0EEE77AB4EEC67A46
:103FD000F1EE10FAC6ED067A47D417EE100A06F095
:103FE00007FE02460B4606F0A5FC25A3D3E90023F5
:103FF00006F052FE07F048F9DFED3B7A07EE100AB3
:10400000C7EE276A2B4BD3ED087A93ED047AF5EED1
:10401000C07AF1EE10FA87EE260A06DDB4EEE70A62
:10402000F1EE10FA58BFB0EE670AB6F800C0194BAF
:1040300086ED040ABCF1020F01930DD000F0A4F943
:1040400004F11C0800F01CFE98E8000F019B256B92
:10405000B3F800C0A3690093174A14231370DCE57A
:1040600049F699124FF6FF73BBE6DFED206AC9E708
:1040700007EE902AF8EEE77AA9E600BFAFF30080DA
:1040800000000060FB21094005130020750E002090
:104090009C0E0020A00D00209A99193F004001407D
:1040A0003C0E0020A00F0020350E0020000402402E
:1040B00000000240740C00200100002000080240B3
:1040C000EC000020BC0D0020F004002006050020BC
:1040D000000048439C0F0020000001409C0D002080
:1040E000E80C0020ACC5273700007A442EE34D3B96
:1040F00070B41C4D95F89160002346FA03F203F169
:104100000E0112F0010F05EB810403F1010317D03A
:1041100090ED007AB5EEC07AF1EE10FA1FD4626825
:1041200007EE902AF1EE677AB4EEE77AF1EE10FA34
:1041300015DC052B00F10400DFD1002070BC7047B6
:10414000D0ED007AF5EEC07AF1EE10FA07DC626885
:1041500007EE102AF4EEC77AF1EE10FAE9D5012045
:1041600070BC7047E80C002010B40E4A002352F8CF
:104170002340DFED0D7A07EE104AB4EE677AF1EED8
:1041800010FA07D051F8234007EE904AF8EEE76A9C
:10419000C6EE877A0133052BE0EC017AE7D15DF8B2
:1041A000044B7047E80C00200000000008B501F047
:1041B0003DFD024B00225A7308BD00BFA00D002038
:1041C00030B4164B164A186919691D69154B1269E6
:1041D00093F87A3001F00204C5F3001100F00100F9
:1041E00044EA81010143C2F3002241EAC20203F022
:1041F0000F0353400FD013F0010F0CBF002002201B
:104200009A0744BF40F00400C0B25B0701D540F0FC
:10421000080030BC7047184630BC704700000240B0
:1042200000040240E80C00200949086878B110B485
:10423000084BD3ED077A5A7867EEA77A002442F04C
:1042400001025A70C0ED087A0C605DF8044B7047AB
:10425000101300201C1300200F4B104A1B784FF442
:104260008061D8074CBF118351830D4A98074FF0E6
:1042700008014CBF11835183094A58074FF02001B0
:104280004CBF1183518313F0080F054B4FF002020E
:1042900014BF1A835A837047340E00200000024076
:1042A0000004024030B5214A138823F0010383B093
:1042B0001B041B0C1F21138001910546019B18460E
:1042C0000138FDD81A4CFFF7C7FF94F87D00FF288E
:1042D00012D0184B1B88042B18D10023DDB994F899
:1042E0008F20520748BF83F00103C3B9124B4FF42C
:1042F00000725A8303B030BD104B1A7802F0FF03EE
:10430000002AE6D10B4A1288802AE7D102F0D8FDB4
:104310000123002DE3D094F88F305B07E6D4064BE1
:104320004FF400721A8303B030BD00BF004001405B
:10433000E80C0020A00D002000000240ED0000204D
:1043400008B50C4B93F88F3013F0040F0A4B4FF461
:10435000007214BF1A835A830A2002F0B1FD074A83
:10436000074913889BB243F001030020138088752E
:1043700008BD00BFE80C00200000024000400140E2
:104380003C0E00200000000008B52B4BD3F88B201A
:10439000D3F8873006EE902A07EE903AF4EEE76AFB
:1043A000F1EE10FA254B03DBC3ED047AC82008BDFB
:1043B0009A7A9FED236A07EE102AB8EEC77A27EEA5
:1043C000067A27EE000AB4EEE70AF1EE10FAEBDA0D
:1043D000B4EEE60AF1EE10FA0CD8B5EE400AF1EEB2
:1043E00010FA4FF000020BBF1A61C3ED046A0120FE
:1043F000FF2008BD134A83ED040AD2ED007A30EEA7
:10440000660A60EE277A17EE900A06F0F1FB41EC9F
:10441000100B07F089F806A3D3E9002351EC100B29
:1044200006F088FA06F010FFC0B208BDAFF30080B6
:104430000000000000E06F40E80C0020A00D00200C
:104440000AD7233C081300202DE9F04FDFF88C83B6
:104450002DED088B98F80530DB0783B000F153820F
:104460009FEDD59A9FEDD5AADFEDD59ADFF85CA335
:10447000D44BD54A1B7812789A4200F04482DAF87D
:104480000050D24C002D00F0FD81D14CD14A237D4B
:10449000DFF85893D04E99F8007094F800E0D4ED0E
:1044A000043ADFEDC58A94ED0A5AD4ED0B2ADFED0C
:1044B000C37A94ED084A94ED077AD4ED065AD4ED08
:1044C000091A217D4FEAC70B06EB0B00F0EE676A75
:1044D00080F804E095F840E080F807E095ED0B2ABD
:1044E00072EE633A0020F4EE683AF1EE10FAB4EEA0
:1044F000625A48BFF0EE493AF1EE10FAB0EE428A45
:1045000014BF4FF0010C4FF0020C8646B6EE003A95
:1045100031E060D3032B42D1D5ED0A4A67EEA44ABD
:1045200024EE836A37EE466A26EE276A38EE468A1C
:10453000B4EEC58AF1EE10FA7CD4B5EEC06AF1EEA5
:1045400010FA77D937EE647A012078EEA78AF4EE74
:10455000E68AF1EE10FA06D4B4EEE38AF1EE10FA30
:104560007FDD76EE8A6AF4EEC85AF1EE10FA76EE46
:10457000E87A0B4675D5012BCBD127EE846A38EE4D
:10458000466AF4EEC62AF1EE10FA63DD38EE628A6E
:104590009E46C8EE047A0221B0EE628AD5E795ED18
:1045A0000A6A27EE866AB4EEC76AF1EE10FA33D5CE
:1045B00066EE034A77EE644A64EEA74A78EE644AF0
:1045C000F4EEE54AF1EE10FA26DD37EE467AB0EE6B
:1045D000648A0120B9E7D5ED0A4A67EEA44A24EEC1
:1045E000836A36EE076A26EE276A38EE468AB4EE0C
:1045F000C85AF1EE10FA30DD72EE457A34EE077AE1
:1046000037EEA76A0120C6EE077A86466146B0EE0D
:10461000447AB0EE458A98E738EE658A31EE876ACB
:1046200038EE088AB0EE617AC8EE067A0120B0EE64
:10463000658A8AE772EE457A34EE077A37EEA76A22
:104640000120C6EE077A86460146B0EE447AB0EE07
:10465000458A7AE7B0EE468A77E737EE247A01207A
:1046600073E7BEF1000F40F00183002840F0F782AD
:1046700013685B7E002B40F0BB8098F8053018076C
:1046800000F1DD8094F83420D4ED03AA06EB0B038F
:1046900068EE2AAA9A711AEE900A06F0A9FA41EC7D
:1046A000100B06F051FE51EC100B06F0EDFD0BEE79
:1046B000900AA06806F09CFA41EC100B06F044FE4C
:1046C00051EC100B06F0E0FD07EE900A37EEEB7AA6
:1046D000BCEEC77A8DED007ABDF8005026F8375051
:1046E0002DB998F805303D4A990700F1628294EDA2
:1046F000017A77EEEA7A78EE878A88EEA7BA6BEECF
:10470000297A17EE900A06F073FA41EC100B06F0C6
:104710001BFE51EC100B06F097FD40F6B7339842A4
:1047200076D806EB0B0300225A715E447080264B4C
:10473000254A1B7889F800300133DBB2202B7BEE51
:10474000EAAAD4ED067AC4ED02BA08BF00231370BA
:104750002AEE8BBADAF8003084ED01BAB4EE678A3B
:10476000F1EE10FA83ED0B8A184B7FF481AEB5EEB3
:10477000C08AF1EE10FA00F37B8298F80520174802
:1047800002F0040101F0FF04002940F06B8214499B
:1047900014480A7800781C6090423FF467AE1248D3
:1047A000531CDBB20478402B08BF0023944208BF9F
:1047B00003700B7058E600BF00000000CD70A638F3
:1047C00050A9AB4E05130020061300201013002043
:1047D0001C130020141300209C0E0020A00D0020AC
:1047E0000D1300200C13002018130020750E00205C
:1047F0006B7E13F0300F3AD198F8053088ED049AAB
:10480000012284F8342023F0080388F805303BE7C0
:1048100041F26F73984220D806EB0B0201235371CB
:10482000D8409D40B0F5803F26F83750C84BFFF484
:104830007CAF9B444FF6FF73ABF8023077E76A7E9C
:1048400012F0300FDAD095ED0F0AFFF79DFD98F8C2
:10485000053084F834000246D5E742F6DF6398421B
:1048600006EB0B0294BF022303235371D8E794EDA8
:10487000070A94ED0C7AD5ED0F7A20EE070A20EEA8
:10488000270AE2E798F80560770736D5B14BB24DB5
:104890001B7803EB031305EB83052560AF4C6078B1
:1048A00010F001016BD00023AD4A637095ED0A7AD8
:1048B00084ED069AF6EE007A06F0020387EE878A08
:1048C00003F0FF01A54F1BB302233B7595ED086A6A
:1048D000D5ED0B6A68EE067A76EEE77AF5EEC07AE9
:1048E000F1EE10FA00F16D81C7ED067A87ED099AB5
:1048F00046F0080688F80560CAE500F001FD0546A7
:1049000020600028CAD103B0BDEC088BBDE8F08F51
:10491000D5ED0BAA39757607C7ED0AAA40F1D2800A
:10492000DFED938A87ED099A2846009200F074FC27
:1049300095ED087A009A60EE007AF4EEC77AF1EE0F
:1049400010FA40F1908037EE677A844E27EE087AAD
:104950003AEEC77AB5EEC07AF1EE10FA84ED0A7A33
:1049600040F24D8177EEE87A032327EE888A86EDC0
:10497000080A86ED0B8A337598F80560B8E7277842
:10498000DFF8E891764A95F818C00137FFB21F2F7B
:1049900008BF0F464FEAC70BC7EB0B034FEA830371
:1049A00009EB030E18BF3946043B8EF818C021707E
:1049B000C2F800E009EB0301A5F1040E05F1100CAB
:1049C0005EF8043FDB00F44541F8043FF8D16B6921
:1049D00084ED019AC7EB0B0109EB8101DB004B6110
:1049E000D5ED057A95ED0B6A5C4BF8EE677AF7EE3C
:1049F000046A87EE867AB607C4ED027AC6EE877A35
:104A000084ED037AC4ED047A02D4010740F1868074
:104A1000D4ED097A27EEA77A20F008006070C4ED83
:104A2000077A85ED087A4F4BC7EB0B0793F88F3069
:104A300009EB870900219B0789F8191010D56B7EB7
:104A40009F060DD595ED0E7A98F80560F7EE006A91
:104A5000C6EE877A012389F81930C4ED0C7A25E770
:104A600098F8056022E737EE687AF6EE006A27EEDE
:104A7000087A37EE2A7A27EE267AB5EEC07AF1EE7A
:104A800010FA5CDDB4EEEA7AF1EE10FA41D577EE79
:104A9000E86A324F66EE886AB4EEE67AF1EE10FA12
:104AA000C4ED0B6A66DD87ED080A95ED087AF4EE31
:104AB000477AF1EE10FA40F0C48001233B7598F874
:104AC000056015E7284B23491B7809780133DBB2D1
:104AD000402B08BF0023994200F08C801E490092B1
:104AE00003EB031301EB8303D3ED088A18EE900A5E
:104AF00006F07EF8009A009241EC100B06F026FFBB
:104B000051EC100B06F0C0FBD5ED0BAA6062009AC9
:104B10000AE70223237598F80560E9E6286A0192FE
:104B2000009306F065F841EC100B06F00FFF51EC16
:104B3000100B06F0A9FB009B019AD86173E7616A2C
:104B400098F80560237D84ED0A9A2162D0E600BFC3
:104B50009C0E00200C130020541300201C13002076
:104B600014130020E80C00200D130020A00F0020DB
:104B70000000000087ED0A7A87ED0B7AD5ED0A7AFE
:104B8000009277EEA77A27EE877A77EE287A17EEEB
:104B9000900A06F02DF841EC100B06F0D7FE51EC10
:104BA000100B06F071FB3B7D386298F80560009AA7
:104BB0009EE643F00103537103B0BDEC088BBDE8E2
:104BC000F08F37EE077A009267EE266A76EE667A05
:104BD00017EE900A06F00CF841EC100B06F0B6FE4A
:104BE00051EC100B06F050FB3B7D786298F80560A5
:104BF000009A7DE6002000215FED238A7BE7D5ED5A
:104C00000A7A95ED087A77EEA77A022367EEAAAAC8
:104C1000337577EE6A7A17EE900A05F0E9FF41ECFA
:104C2000100B06F093FE51EC100B06F02DFB737881
:104C3000706243F008037370009A337D98F8056042
:104C400056E677EEC77AD7ED0A6A3B7D98F805609D
:104C500027EE888A76EEC87AC7ED0A7A48E684EDB0
:104C6000077A05E542F0010242714CE62175FCE449
:104C700098F8053043F0010388F8053043E600BF9B
:104C80000D4AC0F1C8030128536308D013880B49AB
:104C90009BB243F001030120138008707047C823C2
:104CA00053631388054923F001031B041B0C0020E8
:104CB00013800870704700BF000001409C0D002069
:104CC000F8B5F0B110282AD01A4B1B4E93F88F304C
:104CD0001A4C1B4A2027002580219B07378325700B
:104CE000118307D4FFF750FBFFF7CAFF154B0022D3
:104CF0001A73F8BDDFED147AB84208BFB0EE670A48
:104D0000F0E7104B0E4A114D114C00211961C826D5
:104D100080216E632070518300221A73F8BD064C07
:104D20000649074B202501208022658308701A83DD
:104D3000D8E700BFE80C002000000240020000207D
:104D400000040240A00D002000000000000001400F
:104D50009C0D002070B5094C2388022B06D010EE64
:104D6000106A054600F062FFA37803B170BD00EE43
:104D7000106A2846BDE87040FFF7A2BFA00D0020D2
:104D8000024B9B780BB9FFF79BBF7047A00D00202B
:104D90002DE9F047DFF84C91DFF84C81D9F830303D
:104DA0004B4D82B043F00703C9F830300024012690
:104DB0002023404669464FF0030A009380278DF870
:104DC00004608DF805A08DF806408DF8074001F0CD
:104DD000C3FD694628468DF804608DF805A08DF85E
:104DE00006408DF80740009701F0B6FD02236946A2
:104DF00040468DF804308DF80730009701F0ACFD87
:104E0000D8F820203348344BD0F88710D0F88B00E6
:104E1000DFED326ADFF8D4C022F07042C8F82020FB
:104E2000D8F8202042F08052C8F82020D9F8442039
:104E30003243C9F844201A8822F45C72120407EE47
:104E4000900A120C4FF0C70E53201A8007EE101A6A
:104E5000C3F82CE018851C869E821A8CDFF890E03F
:104E600077EE677A22F0010286EEA77A1204120C1E
:104E70001A841A8C9888198B22F00E0220F4407044
:104E800021F07301120400040904120C000C090C37
:104E900042F0060240F4807041F07001988019835E
:104EA0005C631A84B3F844200D496FEA42426FEA0A
:104EB000524292B2C820A3F844208CF800608EEDD4
:104EC000007A58630C706F8302B0BDE8F08700BFB2
:104ED00000040240E80C00200000014000005CC219
:104EE0009C0D00200038024000000240020000201B
:104EF000081300202DE9F84F1D4B1E4A93F87BA0A4
:104F000093F87CB0002313701B4A1C4698461E463B
:104F100099461F4613704AFA04F3DB07E5B218D42A
:104F20004BFA04F313F0010F04F1010409D1052C2D
:104F3000F1D1B9F1000F14D1B8F1000F14D1BDE8CF
:104F4000F88F284602F012FA3043C6B24FF001083B
:104F5000EDE7284602F00AFA3843C7B24FF00109DC
:104F6000DEE7044B1F70E7E7034B1E70E7E700BF67
:104F7000E80C0020340E0020350E002070B5002013
:104F80003825154C154EFFF78DF92A460021144897
:104F900003F06EF82A462046002103F069F8114D0F
:104FA0001148124A00230121037011702B703360E5
:104FB000FFF7A0FF0E4B1B78E375FFF74DF90D4B84
:104FC0000D4910254FF480644FF4807004225D83F6
:104FD0005C8348835A8370BD3C0E00201013002070
:104FE0001C13002005130020750E0020061300205E
:104FF000350E002000040240000002402DE9F84F69
:10500000DFF8A4B19BF80010002900F0B2804B1E1D
:10501000DBB2624F3878984200F0A9804FEA03195A
:105020005F4E09EB030206EB820292ED0A7AD2EDA3
:105030000B7AD2ED096A37EE077A67EE277AF4EE3B
:10504000676AF1EE10FA48BFF0EE667AC2ED087AB0
:10505000002B00F090805D1EEDB2A84200F08F8022
:105060009944DFF840A106EB89092AE0DDB29AF8FD
:105070000030AB4232D004EB041406EB8403D3EDD2
:10508000096AD3ED087A3878F4EE667AF1EE10FA10
:1050900014D093ED0A7AD3ED0B7A99ED086A37EEC6
:1050A000077A27EE277A77EE067AF4EEE76AF1EED2
:1050B00010FAD8BFF0EE667AC3ED087AA842C1466E
:1050C0000FD005EB05186B1E06EB88082C46002D4B
:1050D000CCD19AF800303F25AB42CCD1FFF7A4F8F1
:1050E000C9E79BF800E03D78431CDBB2402B00EBA6
:1050F000001008BF002306EB800000242DE0D0ED57
:10510000086A91ED087AF4EEC76AF1EE10FA14D548
:10511000D0ED0A7A90ED0B6A77EEA77A67EE867A81
:1051200077EEA67AB4EEE77AF1EE10FA05DDB0EE8E
:10513000677AC1ED087A1D460124D2ED097AF4EEB2
:10514000477AF1EE10FA08BF1D465FFA8CF308BFEC
:105150000124402B084608BF00231A01D11806EB92
:10516000810173450A4603F1010CC8D19CB9BDE821
:10517000F88F3F234DE73F25A8427FF471AF094BDD
:105180001B78834201D08E46ADE7FFF74DF89BF8C0
:1051900000E03878A7E73D70E9E700BF181300206A
:1051A000541300200D1300200C130020084A094B53
:1051B00092F98F2000218A42A8BF01221970A8BF4E
:1051C0001A7018B11A7882F001021A70704700BF85
:1051D000E80C0020EC00002008B5FFF725F8044A91
:1051E000044B12781A70BDE80840FFF707BF00BFF4
:1051F0000D13002018130020054B064A03F114007C
:1052000053F8041B42F8041B8342F9D1704700BFD6
:10521000BC0D002058240020437ED0ED0E7ADA0722
:1052200015D5174BDFED176A5B7A07EE103AB8EE2B
:10523000C77A27EE267A67EE877AB6EE000AF4EE92
:10524000C07AF1EE10FAC8BFB0EE670A70475B078C
:105250000BD40B4BDFED0B6A1B7A07EE103AB8EE5E
:10526000C77A27EE267A67EE877A90ED0D7AF4EE0C
:10527000477AF1EE10FAC8BFF0EE477ADDE700BFDB
:10528000A00D00200AD7233C70B5184A184B11789E
:105290001E789FED186A184D1CE0FFF7BDFFB4EEB5
:1052A000C06AF1EE10FA4CBF26EE066A20EE006AE4
:1052B000D4ED0C7A84ED096AF4EEC67A0131F1EE90
:1052C00010FAC9B248BFC4ED097A402908BF0021CD
:1052D000B0EE406A01EB011405EB8404B1422046B4
:1052E000DBD1064B83ED0A6A70BD00BF0D130020B1
:1052F0000C1300209976967E541300205824002029
:10530000064B074A1B7812789A421DBF054803EBEB
:10531000031300EB83000020704700BF0D13002033
:105320000C1300205413002008B5FFF7E9FF20B14B
:105330000220BDE80840FEF70FBC08BD38B52C229E
:1053400000210748074D084C02F092FE0748084A22
:10535000002301212B7023700370117038BD00BF32
:10536000582400200D1300200C13002018130020D7
:10537000542400202DE9F0439D4D2B7891B0002B53
:1053800040F012819B4C9C4B1D88ADB215F0FF067E
:1053900055D0F30600F12681F70700F1398116F0A8
:1053A000E80F0BD02388934F990700F0E4816DB28A
:1053B000002DC0F2A282E820FEF7C0FBB7071ED581
:1053C00016F0680F18D123888A4A402B00F04483D6
:1053D000002B40F03C82002363718649FFF790FF69
:1053E00038B1CB7803F0400303F0FF02002B00F04C
:1053F0008F830023E37023800220FEF79FFB730757
:105400001DD523887B4D03F0D0031BB12B79002BD6
:1054100000F00882E3781E0600F1098203F0200202
:1054200002F0FF01002A00F0CB8103F07F0343F07C
:1054300001034022E37022800420FEF77FFB6F49C6
:105440000B7803F0FF026BB96D4A137803F0FF0588
:10545000002B4FD1228812F0FC0F40F0A08011B039
:10546000BDE8F083637D6348002BEDD1EFF3108539
:1054700072B60B702B4685F31088007A12F0010F7C
:105480000CBF03466423950744BF0A33DBB25707BA
:1054900044BF0A3BDBB2160744BF0133DBB2D5067B
:1054A00044BF03F1FF33DBB2C82B28BFC8230A2B4C
:1054B000657A38BF0A2312F0200F14BF64212946F1
:1054C00012F0400F18BF322112F0800F18BF1921BF
:1054D000984201D1A942B7D000222372227361728F
:1054E000FFF7D2FEFFF778FE454A137803F0FF0579
:1054F000002BAFD0EFF3108372B60021117083F34D
:105500001088A27A15F0010F0CBF13466423A80778
:1055100044BF0A33DBB2690744BF0A3BDBB22F0743
:1055200044BF0133DBB2EE0644BF03F1FF33DBB20D
:10553000C82B28BFC8230A2B38BF0A239A422288C7
:105540000AD0A3722B4E002A00F0B681737943F083
:105550000803737100232373A80601D5102A14D001
:1055600015F0C00F3FF477AF002A40F0C181254EFF
:10557000757A6F064CBF05F0BF0545F0400528461B
:1055800001F032F92288757265E7E37A194A002B37
:1055900040F094820223D37215F0C00FE7D1FEF7DA
:1055A00053FF11B0BDE8F083124C174803F0FF061B
:1055B0000127278001F002FC3146144801F0FEFB70
:1055C000013E02F015F8C82001F07AFCBE4240F21C
:1055D0009C81094BEFF3108272B60021297082F38F
:1055E0001088D1E60123A37011B0BDE8F08300BF9D
:1055F000ED000020A00D0020060500200805002079
:1056000004050020740C002040EB0008C8EA0008E4
:10561000DFF86CE3DFF84883BEE80F0001AF0FC787
:10562000DEF800303B6006A801A9FEF79DFD3C2096
:1056300001F0B4FB2388102B00F07E8200F2C380BF
:10564000022B00F0898200F23082002B00F0708281
:10565000012B02D1BB4801F0B1FBBB4F97F87E1084
:1056600011F0010100F00581637B002B00F0018146
:10567000B64801F0A3FB06A801F0A4FF97F87E301E
:105680009F0700F1C281FFF73BFE18B1C769002FE9
:1056900040F0DA81AE4801F091FB238803F07C03EF
:1056A000002B00F03D81AB4B93ED070AFEF74AF863
:1056B0002C2001F073FB94ED040A002001F0CAFADB
:1056C00000F046FF8046FEF77BFDA34BA34A1B6913
:1056D000177803F001035F4048EA00033B4313F0EF
:1056E000FF0F814640F05F81637B9D4A002B00F0F5
:1056F000EB80013B5373237B994A002B40F01381CD
:10570000138803F07C03002B00F04A810E231373EF
:10571000944801F053FB217A934801F04FFB2C2071
:1057200001F03CFB617A904801F048FB2C2001F02D
:1057300035FBA17A8C4801F041FB8C4B1B78002B88
:1057400000F0F4808A4B1B78002B40F0D481894B09
:1057500089481F6901F032FB432001F01FFBF80765
:1057600000F1EC803E2001F019FB01F041FF012027
:10577000FEF7E4F913E613F0280F41D1002B44D1D2
:105780000122E270720600F1808137076DB201D507
:1057900010232380B0067FF50BAE062002F004F93B
:1057A000E3786F4A190607D41288402A00F0E38193
:1057B000802A01D04022228043F02003E370F7E5E5
:1057C000E170218038E6802B00F0AE8100F262812A
:1057D000202B00F09981402B7FF43FAF674801F008
:1057E000EDFA98F80330190700F1E1815A0740F10A
:1057F000E2819B0640F1AC81312001F0CFFA2CE729
:10580000FA7812F0C00F00F065816AB27006154692
:1058100002D5990640F1D3813707BBD513F0E00FCD
:10582000B8D1B5E795F90330002B80F22181002330
:105830006371FFF783FDFFF7A1FB00F0CDFFFFF7DA
:10584000DBFC4F494F48FEF78FFCE378E6E5D906CD
:105850007FF5D2ADD178C9077FF5CEAD102B7FF49F
:10586000BAADD37A002B3FF4B6AD43F00803D37240
:10587000C2E5454B0BA803F1140E06AAB3EC017A5E
:10588000D3ED047AD3ED096A77EE277A77EEA67A1C
:10589000E0EC017A29B992ED007A77EE677AC2EDF1
:1058A000007A734502F10402E8D100297FF4E0AEEA
:1058B000364801F083FADEE6354B93ED040A987A18
:1058C000FFF75EFA328845E6138803F07C03002B6D
:1058D00000F0B7800E235373237B214A0BB90123B9
:1058E00013732C4801F06AFA0BA801F06BFE02E773
:1058F00012F0380F3FF4AFAD39E62388184A012B78
:1059000000F0E3808023238055E5384602F04CF810
:105910001020FEF713F9204B1A88D206FCD559E661
:105920009FED1E0AC2E6013B13731BE7114B1B6977
:10593000D8077FF517AF104801F040FA462001F074
:105940002DFA0FE768EB0008E80C002098EB000840
:10595000B8EB00081C13002000080240EC000020F7
:10596000A00D0020D0EB0008C8EA00089C0D002024
:105970000200002000040240D8EB000878EB000889
:10598000BC0D002084240020AC0C0020A0EB0008FB
:10599000740C0020C8EB0008060500200000000081
:1059A00007231373B4E6884801F008FA2FBBB8F157
:1059B000000F0AD018F0010F40F0E98018F0020F34
:1059C00040F0E18018F0040F1BD1B9F1000F3FF453
:1059D0008BAE19F0010F40F0E68019F0020F40F095
:1059E000DE8019F0040F40F0D68019F0080F3FF464
:1059F0007BAE532001F0D2F976E6502001F0CEF9CB
:105A0000D5E75A2001F0CAF9DFE7704801F0D6F96E
:105A10006F4A704B11781B786F4899422CBF3F3307
:105A200003F1FF33591AC9B201F0C8F92C2001F073
:105A3000B5F96A4B68485968C1F5A07101F0BEF923
:105A400021E60723537347E7654801F0B7F9394664
:105A5000614801F0B3F91DE6D37803F0200101F0AD
:105A6000FF0000297FF4C8ACDD067DD51080B2E4CC
:105A7000FFF7B2FB6B799F0703D5EA7842F001028A
:105A8000EA7023F006036371D6E46AB24121E17043
:105A90001546C1E6B3F5807F62D0B3F5007F7FF491
:105AA000DCAD504801F08AF9D7E5042B38D0082B3B
:105AB0007FF4D3AD4C4801F081F9CEE5D9077FF5ED
:105AC0006BAD43F00403D37266E5D37843F005036E
:105AD000D37017E7FEF7A8FB3B880222202B7A71D0
