:020000040800F2
:1000000000000220917E0008653600087D36000859
:1000100079360008753600087136000800000000C7
:100020000000000000000000000000006D36000825
:10003000693600080000000061360008493A0008EF
:10004000EB7E0008ED7E0008EF7E0008F17E0008E0
:10005000F37E0008F57E0008F77E0008F97E0008B0
:10006000FB7E0008FD7E0008FF7E0008017F00087F
:10007000037F0008057F0008077F0008097F00084C
:100080000B7F00080D7F00080F7F0008117F00081C
:10009000137F0008157F0008177F00087D72000895
:1000A000413D00081D7F00081F7F0008217F0008D8
:1000B000237F0008D572000881720008297F00089C
:1000C0002B7F00082D7F00082F7F0008317F00085C
:1000D000337F00080D7200081D700008397F00088A
:1000E0003B7F00083D7F00083F7F0008417F0008FC
:1000F000437F0008457F0008477F0008497F0008CC
:100100004B7F00084D7F00084F7F0008517F00089B
:10011000537F0008557F0008577F0008597F00086B
:100120005B7F00085D7F00085F7F0008617F00083B
:10013000637F0008657F0008677F0008697F00080B
:100140006B7F00086D7F00086F7F0008717F0008DB
:10015000737F0008757F0008777F0008AD6F000887
:100160007B7F00087D7F00087F7F0008817F00087B
:10017000837F0008857F0008877F0008897F00084B
:100180008B7F00088D7F000810B5054C237833B9AC
:10019000044B13B10448AFF300800123237010BD5A
:1001A000C800002000000000F0F10008084B10B566
:1001B0001BB108490848AFF300800848036803B939
:1001C00010BD074B002BFBD0BDE81040184700BF07
:1001D00000000000CC000020F0F10008C800002062
:1001E00000000000154B002B08BF134B9D46A3F5E4
:1001F000803A00218B460F461348144A121A07F022
:1002000009FF0F4B002B00D098470E4B002B00D05E
:1002100098470020002104000D000D48002802D05E
:100220000C48AFF3008007F0CFFE2000290000F05B
:1002300013F807F0B5FE00BF000008000000022020
:100240000000000000000000C8000020602F002017
:1002500000000000000000002DE98048BE4C23781B
:1002600097B01BB906F0ECFD01232370BB4BBC48D3
:100270001A6CBC4C42F400321A641A6B42F0010250
:100280001A63036A23F470630362036A43F4E0634E
:100290000362036A23F470430362036A43F4E04396
:1002A000036202230CA900220C268DF834300325AA
:1002B00001238DF836208DF837300C968DF83550A7
:1002C00006F01CFBA3896FEA43436FEA53439BB2DA
:1002D000A381238A23F440531B041B0C2382A3898C
:1002E0009BB223F4B05323F00C033343A381A38ABE
:1002F00023F440731B041B0CA38211A806F08EFA92
:10030000A289139B984C12F4004F03EB8303974A86
:1003100003EB8303A2FB0323924A14BF5B0C9B0CE9
:100320009289A4FB031040096421120400FB1133DD
:100330004FEA001000F10A821A013232A4FB0223B4
:10034000C3F343130343874DDFF81082884C9BB2FD
:100350002B8101260027262311A88DF844308DF823
:1003600045608DF847608DF8467007F06FFC814A54
:100370007B48136843F020031360AB899BB243F4BE
:100380000053AB81D8F830307B4D43F00703C8F8F9
:10039000303011A9132311938DF848708DF84960FE
:1003A0008DF84A708DF84B6006F0A8FA4FF4807310
:1003B00011A97248119306F0A1FAD8F830306848B4
:1003C00043F00703C8F830304FF4E063119311A9EC
:1003D00003238DF849308DF848608DF84A708DF808
:1003E0004B7006F08BFA40F23E4311A9634811931B
:1003F00006F084FAD8F8443043F48033C8F8443027
:10040000238823F440731B041B0C4FF6FF71062254
:100410002380E1622285A682238C23F001031B0442
:100420001B0C2384238CA188228B23F0020322F04F
:1004300073021B04120489B21B0C120CA18042F03F
:10044000100240F6FF7143F00203228361632384AC
:10045000238B23F008031B041B0C43F008032383A6
:1004600023889BB243F08003238011A818238DF8C2
:1004700044308DF845708DF846708DF8476007F070
:10048000E5FBA3893E499BB243F00303A381238884
:1004900023F001031B041B0C238028464FF48062C9
:1004A00009F098F92B78072B00F04087072007F018
:1004B0003FF8FF2006F076FF07F09CF8314B002252
:1004C00003F5A0711A605A609A60DA6010338B42AB
:1004D000F8D14FF4A072B4212A4803F061F92A4BF5
:1004E0002A4800241C60C3F80340294B21461C60A5
:1004F0005C609C60DC601C6140F2071207F08AFDC2
:1005000021464FF44672234807F084FD21464FF4FC
:100510000072214807F07EFD11A806F07FF9129BBA
:100520001E481F4A1F49A0FB03039B09013B536060
:10053000F020072381F8230094601360C968C1F399
:1005400002215B1A042B01F1040228BF0423062AAE
:1005500040F2E98628E000BF6C0C00200038024021
:1005600000000240004400401F85EB51C5B3A2913A
:10057000004001400C440040F00000200004024014
:1005800000000608280B0020E400002008050020D9
:10059000B40D00201006002028090020D34D621061
:1005A00010E000E000ED00E0033901248C40013C44
:1005B00004F00504012202FA03F3013B03F00503F2
:1005C0008B40DFF88CA290499AF88F20DFF87C826C
:1005D0008E4FDFF8809223431B01DBB281F823307A
:1005E000C2F300124FF0000B894B8A4C83F800B025
:1005F000A4F800B0884C397D84F800B0874CC7F867
:1006000008B084F800B0864CC7F800B064233A8084
:10061000C7F814B083483975C7F804B00021C7F88B
:100620000CB0C7F810B0C7F818B07422C9F800B001
:10063000C9F804B0C9F808B0C9F80CB0C9F810B0CE
:1006400084F800B03B727B72BB7207F0E3FC764922
:10065000002006F091FE10B9072006F069FF734DE7
:1006600004F050FF05F076FF03F0ACF92B6B7048F7
:1006700043F007032B630124032611A98DF84AB028
:100680008DF84BB011948DF848408DF8496006F014
:1006900035F9022311A96748119306F02FF9644B2D
:1006A0005C8306F07FF92B6B624843F007032B63F2
:1006B00011A911948DF849608DF84B408DF848B020
:1006C0008DF84AB006F01AF99AF98F305A4A002B81
:1006D00082F800B0A8BF147004F03EFC04F032FDB4
:1006E00004F06EFE06F04AF85449554806F038FB0F
:1006F00006F000FB9AF88F301B0700F17E813B88E3
:10070000424C13F0810300F06281022007F01EF9D1
:100710000123238000249FED4B9ADFED4B8A254671
:100720000DF11E020021012006F046FBB8B99DF82C
:100730001E300A2B21D00D2B1FD0002D40D0292B8D
:10074000EED1AA07ECD505F0FD05E9E7D900323175
:10075000A4FB0132C2F3421242EA0003F3E504F0C3
:10076000C7FE04F0EBFEFB78002B40D1BB78002BDA
:10077000D6D006F065FB3A8836E704F0DFFEFB785A
:10078000002B37D1BB782149002BF2D108F8043077
:1007900015F001042D4A30D11078002800F0DC80DB
:1007A000242800F0E9800B8823F4EF739B059B0D50
:1007B000002B00F0D6800920254606F0B9FEAFE7F1
:1007C000202BADD92F2BABD0282B00F0D1803B2B89
:1007D00000F0FB80C62C00F2CD80A3F16102192A43
:1007E00098BF203B621C08F80430D4B298E707F0A9
:1007F0000DF9BBE707F00AF9C4E70B201C461D46BC
:1008000006F096FE8CE700BF00ED00E0980D00209A
:10081000EB000020F2040020EE000020ED0000209C
:10082000F0040020700C0020A80C002000380240CA
:100830000004024000080240EC000020B4E9000877
:10084000BCE9000800007F4300000000842E002067
:10085000E40C0020F4040020964C974806F080FA3F
:1008600021788B2940F2BD83944806F079FA2178EB
:1008700093488A3906F074FA8E4C924806F070FA62
:10088000E1798F48363106F06BFA8E4806F068FA47
:1008900061798B48113106F063FA8A4806F060FAF4
:1008A000A1788748C1F1150106F05AFA854806F08B
:1008B00057FAE17882485A3106F052FA814806F038
:1008C0004FFA61787E48C1F15E0106F049FA7D4831
:1008D00006F046FA21797A48623106F041FA237A25
:1008E000002B40F06A83784806F03AFA714B9B7A05
:1008F000102B00F0FD84202B00F0F584002B00F07D
:10090000ED84714806F02CFA6A4B5B7A002B40F0BC
:100910006483392006F014FA6C4806F021FA654B1E
:100920006748197E06F01CFA694806F019FA614B0F
:1009300093ED050A02F0EAFF664806F011FA5D4BF6
:10094000002093ED040A06F057F95D2006F0F8F94F
:10095000002606F01FFE3046002406F0E9FD25467D
:10096000DEE61C4600F0DEFF254606F0E1FDD7E698
:100970000225D5E60125D3E656780123472E8DF8CA
:100980001F306BD044D9502E7FD050D9542E5DD11A
:10099000967802238DF81F30002E40F00282EFF38C
:1009A000108272B64C4B4C491B8823F400731B0415
:1009B0001B0C0B8082F310883B7DA7F800B0002B46
:1009C00040F0A38212263046C6E70425A8E623801D
:1009D00003F0DAFCC6077FF59DAE3F4B3E4A1B880D
:1009E0009BB243F02003138004F0A8FDE378002BB2
:1009F0003FF490AE07F00AF88CE605F08DFE002873
:100A00003FF47DAE012307203B8006F09FFF76E692
:100A1000242E23D0432E21D0D6B9304806F0A0F999
:100A20002F4806F09DF906F065F9304694E74A2E06
:100A30000ED10B8823F020039BB263B998F80230E3
:100A40003D2B00F0A5820326304685E7582E05D0C1
:100A50003B88012B4CD9082630467DE798F80240A8
:100A6000002CF0D1432E00F0828240F26582472EA6
:100A70003FF4F2AE582E40F091813B88194D012B86
:100A800000F03B842646304666E70A7D002A99D06E
:100A9000154D8AF879300FCD144E306028683061DA
:100AA000354626466960AA60EB6006F041FC304698
:100AB00052E700BF700C00205CEA000864EA0008FE
:100AC00068EA00086CEA000870EA000874EA0008A6
:100AD00078EA00087CEA0008F2040020ECE900084B
:100AE00038EA0008980D0020B40D0020490D0020C0
:100AF000A6F12303302B00F25682DFE813F0A300A7
:100B00005402540254025402540254025402540235
:100B10005402540254025402540254025402540225
:100B20005402540254025402540254025402540215
:100B30005402540254025402540254025402540205
:100B4000540254025402540274007D0054025402B0
:100B50005402540254025402540254024D00310013
:100B600098F80220BE4B4C2A7FF46DAFDA78502AF9
:100B70007FF469AF1E79002E7FF465AFEFF310822A
:100B800072B6B84BB7491B889BB243F080030B8009
:100B900082F310883046DFE698F80220B04B532AE3
:100BA0007FF451AFDA78542A7FF44DAF1A793D2A99
:100BB0007FF449AF9E79002E7FF445AF5B79242BFB
:100BC00000F07C8440F272842A2B00F06A84542B5B
:100BD0007FF439AF02F0C6FE092006F0B7FE05F03B
:100BE00025F93046B8E69AF88F309F4CDD0600F1C3
:100BF000FC8105263046AFE698F80260984C022347
:100C00008DF81F30002E00F0208203233D2E8DF83A
:100C10001F307FF418AF954918F80320CA5408EB29
:100C2000030201331678DBB2002EF4D140F2AE306D
:100C3000502203318DF81F3002F096FD02F020FDA6
:100C4000304689E698F80260002E7FF4FCAE362527
:100C500001240196A5F13602D6B230460CA906F061
:100C60008BFB002800F05582814806F079F8062EAB
:100C700000F03E82072E40F026827E48019E06F05C
:100C80006FF83A2006F05CF80CA806F06DFC5D20C9
:100C900006F056F806F07EFC774C784806F060F8CF
:100CA000A4F1180006F060FC5D2006F049F806F09B
:100CB00071FC734806F054F814ED010A04F11005B4
:100CC00002F03AFE6F4806F04BF8B4EC010A02F06D
:100CD00033FEAC42F6D15D2006F032F806F05AFC45
:100CE00006F064FC684806F03BF8684911A803F078
:100CF0001FFB9DED110A02F01FFE2C2006F020F8CC
:100D00009DED120A02F018FE2C2006F019F89DED58
:100D1000130A02F011FE3A2006F012F89AF8791040
:100D20005B4806F01DF85D2006F00AF806F032FC7C
:100D300005F0E0FF30460FE608A807F02DF9C4B231
:100D40002146544806F00CF8132C40F2E9809FED40
:100D5000528A0C2006F0FAFDF0EE489AB0EE48AA4E
:100D6000B0EE480A02F0E8FD3A2005F0E9FFB0EEE7
:100D70004A0A02F0E1FD3A2005F0E2FFB0EE690A0E
:100D800002F0DAFD3A2005F0DBFFB0EE480A02F08F
:100D9000D3FD5D2005F0D4FF06F0FCFB00263046B5
:100DA000DAE53E4B3E4C1E68CDF830B0CDF834B09D
:100DB000CDF838B0CDF83CB0CDF820B008A900236C
:100DC00014F8012F01F8012BD81CC0B2B5188DF80A
:100DD0001F006D786D0703F1010340F1D780032BED
:100DE000EED116A90B443D2A03F838BCA4D111ABAF
:100DF000CDF844B0CDF848B0CDF84CB0CDF850B0F7
:100E00000193002408EB0005284609F045FC234A1D
:100E1000844205EB040316680AD213F8012BB118BB
:100E20004978490740D42D2A3ED001348442F4D376
:100E30009DF82430A6465FFA8EF4002B52D0019B19
:100E400018491A4609A804331D4601930CF090FC7A
:100E500015AAAA428DF824B044D09DF81F00D1E70E
:100E6000842E0020F2040020E40C0020812E0020BB
:100E700090EA000898EA0008D40C00209CEA0008D8
:100E8000A4EA0008B4EA0008ACEA0008490D002012
:100E900068EA000884EA0008000000001C00002046
:100EA000852E002080EA00082819002109AD05F8E8
:100EB000012B10F8012FB31801315B7803F0040304
:100EC00003F0FF0C04EB010E002BF0D12E2AEED024
:100ED00016AB19445FFA8EF401F834CC9DF8243037
:100EE000002BACD1119A129B0C920D93139A149B68
:100EF0000E9208A80F9307F04FF8C4B2132C27D90D
:100F00000C2006F023FD002649E79AF86430844C53
:100F1000022B41D0032B7FF46CAE02F037FD1AE5B3
:100F2000804B03EB041393ED000A93ED01AAD3ED7C
:100F3000029A93ED038A15E7242E7FF42FAF3B88A6
:100F400013F018047FF487AD06F054FB264602E543
:100F50000CAB0FCB734D2401254485E80F0004F141
:100F6000B40010220CA902F0FFFB002617E73B8813
:100F70006D4A022B00F0CF81002B7FF46CAD022173
:100F800004201E46118006F0E1FCE4E4DBB228E711
:100F900000F0C8FC0646DEE494F87930002B40F0FF
:100FA000CF811326D7E40CA90DF11F0006F0A2FE95
:100FB000002840F0A5820226CDE45C4805F0D0FE72
:100FC000217A032900F07F821E2902D002297FF4B2
:100FD0008AAC574805F0C4FE85E4382005F0B0FE21
:100FE0009AE4534805F0BCFE46E403F0CDF9C0078F
:100FF00001D50D26AFE498F802604B4D04233B80E9
:10100000002E7FF420AD03F07FFA94F87A30AA78AE
:1010100023F0100384F87A30002A00F09B8004F05B
:10102000DBFEBB78404C002B7FF495AC05F0A6FBB3
:1010300004F0C6F905F0B6FCA07800287FF48BAC6C
:101040002080064603F012FA85E4502240F2AE31C9
:10105000204602F0A5FB40B92146502240F2AE30B6
:10106000267002F081FB02F00BFB324A3249334812
:1010700005F076FE3249334805F072FE5D2005F03A
:101080005FFE06F087FA304805F06AFE562005F04C
:1010900057FE4E2005F054FE5A2005F051FE2C203C
:1010A00005F04EFE3F21224805F05AFE2C2005F0A7
:1010B00047FEC8211E4805F053FE5D2005F040FEA6
:1010C00006F068FA47E42946194805F049FE3A2037
:1010D00005F036FE0CA806F047FA5D2005F030FE5C
:1010E00006F058FA082C12D00134E4B20135B1E50B
:1010F000164805F035FE3A2005F022FE0CA806F051
:1011000033FA5D2005F01CFE06F044FAECE7019E80
:10111000C2E5034607201E4606F00AFA1BE400BF9C
:10112000E40C0020280B0020980D002070EA000835
:1011300068EA0008B8EA0008B4E90008C4EA000850
:10114000842E0020D4EA0008D8EA000894EA0008B7
:101150000000000006231FED028A0E960C960D96E5
:101160000F9610968DF8383009AD34460321FFEE06
:10117000089AE0B2019106F0CBF8019905F8010B4D
:1011800041FA04F204F10E0312F0010F0AEB83039B
:1011900004F101040BD05B6807EE903A67EEA97A80
:1011A000F4EEC87AF1EE10FA58BFB0EE678A052C5B
:1011B000DFD1DAF89630049304230193012511A8B6
:1011C000C34903F0B5F800239AF8912002921C4617
:1011D000184611AAF1EE487A0321194105910299A6
:1011E00041FA03FE0599C90700F1010C0ED5B84973
:1011F0001EF0010F5FFA8CF041F823B069D0002D8A
:1012000069D0C2ED007A09A9C95C0C430133052BF2
:1012100002F10402E0D109F099FC41EC100B0AF054
:1012200065FB53EC102B0498CDE9022309F0B0FCC8
:10123000DDE9022309F000FDFC7109F0F5FF0CA9BE
:101240000C9011A804F030FE04237B7103F0E0F948
:1012500003F05AF9002D40F0C88103F0D9F99D4BF5
:101260001B8803F03403002B40F09281A306F1D1D8
:1012700003F068FFBAF89A0005F0F4FDDAF896205A
:10128000DAF89230049295F0010500F0A881924AB4
:10129000D2F89C20049308EE102AF1EE047A28EE8E
:1012A000278A019B013B13F0FF03019387D103229F
:1012B00042FA03F1C80744BF854941F823B001331E
:1012C000052BF5D105F046F9012387F805B03B75EC
:1012D000A5E6002D95D082ED008A94E7352005F033
:1012E0002FFDFFF70EBB342005F02AFDFFF709BBE9
:1012F000332005F025FDFFF704BB03F045F810F09F
:1013000001067FF476AE032006F020FB2E8003F06A
:10131000FBF8FFF720BB04F089FD0520264606F008
:1013200015FBFFF718BB2146FFF744B93146A02251
:10133000694802F035FA00287FF4C0A8FFF7B6B874
:1013400004F1650111A8CDF830B0CDF834B0CDF876
:1013500038B0CDF83CB0CDF840B0CDF844B0CDF8C1
:1013600048B0CDF84CB0CDF850B0CDF854B002F044
:10137000DFFF9DF83830594ACDED138AD2690F92BC
:1013800043F001030CA911A88DF83830CDED0C8A7B
:101390008DF840B0CDED0D8A04F04CFFD4F86D30DF
:1013A000DFED4F7A9FED4F8A4C4D06EE903AA368E1
:1013B000F8EEE66A06EE103A86EE867A0CA911A8D7
:1013C00077EE277ACDED137A04F034FF04F012FDA6
:1013D000DDED137A444B8DF838B077EEC87A0022F1
:1013E0000CA911A8CDED137A0C9305F02FFB012861
:1013F0007FF4B1AA364911A802F09AFF9DED137A45
:10140000DFED3A7A8DED0C8A77EE277A0CA911A8D8
:10141000CDED137A04F00EFFDDED137A344B0C930F
:1014200037EEC88A00220CA911A88DED138A05F0A9
:101430000DFB01287FF48FAA2E4B2E4A1B78F3B1A7
:1014400082F800B02C4AD9F808301360052005F066
:1014500009FD9DF83830CDED138A43F001030CA946
:1014600011A88DF8383004F0E5FE0CA9234804F0EB
:10147000E1FE04F0BFFC05F081F9FFF76CBA1E4AEB
:10148000D9F808301168A268A8715B1A07EE903A83
:1014900006EE902AF8EEE77A87EEA67A85ED1A7ABC
:1014A000D4E7FF2005F07EFFFFF796BB232B7FF4E8
:1014B000CAAA022005F076FFFFF78EBB012005F0D7
:1014C00071FFFFF789BB302005F03AFCFFF70BBA3C
:1014D000B40D0020F2040020E40C0020700C002069
:1014E00000008C420000484300005C436666E63F13
:1014F0000000404100000020680C0020840D002006
:101500009DF81F30CB4C18F8032001333D2A8DF88D
:101510001F307FF498AA11A90DF11F0006F0EAFB15
:1015200000283FF448AD9DF81F301E5D002E7FF46B
:101530008AAADDED0C7AF4EEC97AF1EE10FA3FF7E3
:1015400082AA9DED118AFCEEE77AB5EEC08ACDED58
:10155000017AF1EE10FA9DF804405AD4632C40F25F
:101560008E80A4F16403DBB2042B70D9092B7FF6C3
:101570006AAA01220A3BDBB2042B02F101014BD91A
:10158000092BCAB27FF65FAA052AF3D1FFF75BBA2F
:10159000A94B1C88A4B2E00602D5062002F04AFA44
:1015A000A10602D5072002F045FA5DB1630702D516
:1015B000092002F03FFAA14B1B785BB9042002F02E
:1015C000A1FB55E605F0A8F88207F4D0082002F048
:1015D00031FAF0E704F02AFC04F0FEFB1FE5984B1B
:1015E000D3F89C3008EE103A5BE605F095F809AAAE
:1015F000002312F8011B0C4240FA03FE03F1010321
:1016000003D01EF0010F18BF8C43052BF1D1FC71E4
:1016100023E60426FFF79FB9032A00F07A81042A03
:1016200000F07181022A00F062815AF823209FEDB8
:10163000857A07EE902A68EE277A814AF4EEC77A17
:10164000F1EE10FA40F34D810C26FFF784B91A1D14
:101650000AEB82029FED7B7A526807EE902A68EED1
:10166000277A774AF4EEC77AF1EE10FAECDC18EE3E
:10167000101A42F8231005F05BFEFFF76CB918EE64
:10168000100A09F085FA41EC100B0AF0F1F851EC60
:10169000100B09F0A9FDC0B2212C3FF6D4A901A37B
:1016A00053F824F077160008D3180008D91800085A
:1016B000C91800089B1800088B1800087518000846
:1016C000470A0008470A0008470A00086F18000880
:1016D000291800081F1800080B1800080518000832
:1016E000470A0008470A0008470A0008470A000896
:1016F000470A0008CB170008B7170008A71700080B
:10170000A1170008971700088D1700088717000811
:101710007D170008470A0008470A00086F170008ED
:10172000611700083D1700082D1700089AF890303F
:1017300060B143F001038AF890309CE79AF88F304B
:1017400048B143F002038AF88F3094E723F0010395
:101750008AF890308FE723F002038AF88F308AE707
:1017600018EE103A384A136003F0F6FB83E718EEE0
:10177000103A364A136003F0EFFB7CE718EE103A9C
:10178000CAF89C3077E7AAF89A0074E718EE103A86
:101790002F4A13606FE718EE103A2E4A13606AE77B
:1017A0008AF8910067E79AF88F30B8B143F01003D8
:1017B0008AF88F305FE79AF88F30A0B143F00803C2
:1017C0008AF88F3005F0EEF855E79AF88F30A0B11F
:1017D000D9061B4A0CD40A26FFF7BDB823F0300304
:1017E0008AF88F3047E723F008038AF88F30E9E75B
:1017F00043F0200382F88F303DE723F020038AF87E
:101800008F3038E78AF8640035E79AF88F3048B3AC
:1018100043F001038AF88F3002F0ACFD2BE718EE9D
:10182000103A0D4A136026E718EE103A0B4A13607F
:1018300021E700BF842E0020F2040020EE000020EB
:10184000E40C002000BADB4A6F0D00206B0D002075
:101850007A0D0020760D0020670D0020630D00201A
:101860000000704223F001038AF88F30D4E78AF831
:101870007E0000E79AF88F30B8B163F07F038AF8F2
:101880008F30002003F076FDF5E69AF88F3088B1AE
:1018900043F040038AF88F30EDE69AF88F3070B14C
:1018A00043F004038AF88F30E5E603F07F038AF8FB
:1018B0008F30E6E723F040038AF88F30DBE623F031
:1018C00004038AF88F30D6E68AF87C0003F0F6FB32
:1018D000D1E68AF87D00CEE68AF87B0003F0EEFBC5
:1018E000C9E602EB830318EE102A5A61C3E65FEDE6
:1018F000247A28EE278A0A3328EE278A18EE102A3F
:101900004AF82320B7E6143318EE102A4AF82320A9
:10191000B1E6F1EE487A0AEB830317EE902ADA6318
:10192000A9E600BF2DE9F04F2DED0C8BDFF85CA28E
:10193000914FABB060220021504606F06BFB8F4BFD
:101940003D7807CB1B88AAF80D308C4BCAF80100F4
:101950002433242DCAF80510CAF80920099300F091
:1019600017811E460FCE11AC0A940FC400223368B3
:101970002360002113468DF83F20079210914FF00D
:101980000009CDF82090CB46C8464C46CDF81090C3
:10199000CDF80890CDF80090DFED798ADFED799AE7
:1019A0009FED799A002D00F02281A5F14102D2B27B
:1019B000192A00F22183013310A90DF13F008DF89F
:1019C0003F3006F097F9002800F01D839DED108A46
:1019D00018EE100A09F0DCF841EC100B09F048FF92
:1019E00051EC100B09F000FC86B207EE906AF8EE9D
:1019F000E77A78EE677A67EEA87A17EE900A09F030
:101A0000C7F841EC100B09F043FE51EC100B09F044
:101A1000EBFB472D80B229D04D2D40F0908000285F
:101A200040F0FE821E2E00F21681DFE816F0FE0066
:101A3000FE00FE00F300F300F300CE001401C60028
:101A4000C60014011401140114011401140114013D
:101A500014011401140114011401140114011401DE
:101A600014011401140114011401FE00632E00F28C
:101A7000F280DFE816F0EA01EA01EA01EA01710208
:101A8000F000F0000D021902F000E200F000F0009A
:101A9000F000F000F000F0002502250225022B02E4
:101AA0002B02F000F000F000F000F000F000E20087
:101AB000F000E200F000F0003202F000F000F00070
:101AC000F000EA01F0009301F000F0009A01F0004C
:101AD000F000F000F000F0009A01F000F000F000DB
:101AE0007102B701B701B701B701B701B701F00043
:101AF000BD01F000F000F000F000F000F000F00098
:101B0000F000F000F000F000F000F000F000C30181
:101B1000F000F000F000D101D701D701D701F000AB
:101B2000F000F000F000F000F000DE01DE01E20065
:101B300040024002F000470253026B026B02443D38
:101B4000162D00F28880DFE815F0F700FC00010197
:101B5000860006010B0113011B0124018600BF0052
:101B60008600C600CB00D000D500DA0086008600D3
:101B70008600E500EE00A100842E0020700C0020FD
:101B80000000C8426F12833A00007F43CC0D002052
:101B90001D460FCD11AC0A940FC42B68236001229F
:101BA000002000210323FD7810908AF8012007927D
:101BB0008AF802108DF83F30E1E6092E52D1002359
:101BC0000D228AF80A30934602E001235A46089310
:101BD00044FA02F3DD0700F12582012393401C4300
:101BE000A4B29DF83F30FD5C002D7FF4DEAE029B79
:101BF00023B1009B002B08BF0223009318F0200F95
:101C000000F0C581CB4BDAF834209A4240F3BF8113
:101C10001B2521E0042E00F0FD81052E30D100238C
:101C20000C228AF80B309346D2E7002E00F0A981EF
:101C3000012E20D10B229346CAE7002800F0FA813A
:101C4000F3B21C2E8AF8003002D01E2E40F08B8199
:101C50000A2800F09081142528462BB0BDEC0C8B8F
:101C6000BDE8F08F9AF80A300D2243F040038AF85D
:101C70000A309346ACE70B228AF809609346A7E73F
:101C800010230C228AF80B309346A1E7029B8AEDC1
:101C9000158A0C2243F004030293934648FA02F398
:101CA000D80700F1E781A44B1341D90705D5B5EE5C
:101CB000C08AF1EE10FA00F11F820123934043EA3B
:101CC00008081FFA88F88CE7FDEEC87A0522CAEDED
:101CD0000D7A9346E2E706228AED0E8A9346DDE707
:101CE0000D228AED0F8A9346D8E707228AED108AE3
:101CF0009346D3E708228AED118A9346CEE7B4EEE5
:101D0000C98AF1EE10FA00F34E8209228AF848607F
:101D10009346C3E7029B8AED138A0A2243F001032C
:101D200002939346BAE7029B8AED148A0B2243F092
:101D3000020302939346B1E71022AAF8106093467B
:101D4000B5E712228AED058A9346B6E700228AEDAE
:101D5000068A9346A2E711228AF812609346ACE7FE
:101D6000049B8AED078A012213430493934695E767
:101D7000049B8AED088A02221343049393468DE75D
:101D8000049B8AED098A032243F0040304939346DB
:101D900084E704228AF8306093467FE74FF0070B10
:101DA000002840F03D815A4612E7009B002B40F08E
:101DB0002282312E00F060810A2800F0538107EE64
:101DC000900AF8EEE77AF4EEE97AF1EE10FA7FF590
:101DD00042AF4FF00109082203238AF80790934687
:101DE0000093F5E6363E8AF808604FF0090BD7E716
:101DF00000287FF430AF0A229346E9E64F4B93F870
:101E00009030D9077FF527AF4C238AF801300223A1
:101E10004FF0010B0093C3E750238AF801304FF0D5
:101E2000010BBDE702238AF801604FF0010B00931C
:101E3000B6E7002800F0F8800A287FF40CAF5A2E8D
:101E40003FF409AF04229346C2E6009B002B40F00A
:101E5000D281F3B2262E8AF80130394940F0FD8054
:101E6000A0F1140292B21E2A3FF6F5AE354D25FAC6
:101E700002F2D6077FF5EFAE334A6433A2FB0020AF
:101E800003EBD00301224B700223934600939FE69D
:101E90002A4B93F89030DB077FF5DDAE01238AF8FB
:101EA0000D304FF0090B7BE7244B93F89030DE07A1
:101EB0007FF5D1AE00238AF80D304FF0090B6FE7A4
:101EC000113E8AF806604FF0020B69E7C6F115066D
:101ED0008AF803604FF0060B62E7184B93F89030D6
:101EE000DD077FF5B8AE21238AF8013002234FF0D9
:101EF000010B009354E7C6F15E068AF802604FF0CA
:101F0000050B4DE70D4B93F89030DA077FF5A3AE44
:101F100001238AF80E304FF00C0B41E7074B93F882
:101F20009030DB077FF597AE00238AF80E304FF034
:101F30000C0B35E78096980061030100E40C00204B
:101F4000CC0D002001041040CDCCCCCC623E8AF8F0
:101F500005604FF00B0B23E7F3B21C2E8AF800301C
:101F600006D01E2E04D05C2E02D04FF0000B17E7D7
:101F700000287FF46DAE184400228AF800009346D2
:101F800026E603230B228AF80930934620E6079BB6
:101F9000002B5DD19AF80230BA4A012B00F0EA809A
:101FA000B94BB9495B783BB918F0010F00F0F880E4
:101FB000D378012B00F0BB8108F480739BB21BB96E
:101FC000B14A1269CAF84420E20405D59AF8012002
:101FD000AC49012A00F0B9809AF80030042B00F0D7
:101FE000C0809AF80130A3F15102022A5AD818F0A1
:101FF000800F4DD11C252FE6012528462BB0BDECC6
:102000000C8BBDE8F08F022528462BB0BDEC0C8B65
:10201000BDE8F08F20230C228AF80B309346D7E5D9
:10202000172519E6152517E65A3E03228AF804609B
:102030009346CDE5009B002B40F0DD80F3B21C2ED3
:102040008AF8003021D01E2E1FD0012200928AE78C
:1020500018F0010F52D11625FEE502234FF0010BB7
:1020600000939DE6012308228AF807300323934654
:102070000093ADE51925EFE59DF800308AF80730AB
:102080000822032393460093A2E50122009272E7FF
:10209000522B00F05581532B00F05B8128F0800813
:1020A0001FFA88F89AF80630002B73D0012B0CBF6A
:1020B000012300230D930CBF002302230C930CBFBC
:1020C000022301230B939AF80330012B6DD0009B60
:1020D000032B00F08180DFF8B0E10EF138070FCF5D
:1020E00016AE0FC63B683360A30520D59AF80800EA
:1020F000062812D91D25AFE50425ADE59AF8032081
:10210000604B012A7FF458AFD3ED067A9FED5F7ADA
:1021100067EE877AC3ED067A4EE79EF80730834272
:1021200005D016A905F028F9002800F0E8809AF8F3
:102130000020544E0A2A00F0AD805C2A5DD1029B3B
:10214000002B40F016811A2586E5002B3FF452AF94
:102150000B7828F480780022042B1FFA88F80A8272
:10216000A0D118F0400F3FF445AF28F040081FFA07
:1021700088F836E7009B022B7FF41EAF5378502B74
:102180003FF41AAF002B3FF417AF18F0010F3FF4E4
:1021900062AF11E70B9302230D9301230C9392E797
:1021A0004B69936108E7262556E539499FED377A53
:1021B0000298002340FA03F212F0010F03F1010329
:1021C00005D0D1ED007A67EE877AC1ED007A052B54
:1021D00001F10401EED17AE7B9F1000F7FF47BAF92
:1021E0009AF80730012B7FF476AF029B042B3FF463
:1021F00072AF252530E518252EE5009B032B17D05F
:10220000029BABB1099996F804E006F14C0300205B
:1022100016AE029F0741FF0773D40F681F6001309D
:10222000052801F1040103F1040306F10406F0D1CD
:102230001E2A00F0E780352A00F094801C2A00F066
:10224000EE809AF80130502B00F02D814FF0000BFA
:10225000009A022A00F00481079B009913F0010202
:102260000ABF28F4487328F0210323F001039BB22E
:1022700019B123F4E0539B049B0C002B00F0D78092
:102280002425E9E4CC0D0020700C00203333CB4131
:10229000180E0020029B002B3FF455AF18F0500F92
:1022A0003FF4A8AEB06B08F073FC41EC100B09F0E2
:1022B000DFFA51EC100B08F097FFC0B206283FF68A
:1022C00019AF96F83030142B06D0022B7FF4C3AC34
:1022D00018F0800F7FF4BFAC28F050081FFA88F880
:1022E000002800F0498101385FFA80FBC04E584653
:1022F00006F11C0105F040F8002840F02681072572
:10230000AAE4352A8BD0BEF1000F72D196ED006A97
:10231000D1ED0A6A93ED007AD1ED0F7A76EE266A56
:1023200036EE877A77EE277AC3ED007A77E7D2ED3B
:10233000067A9FEDB07A67EE877AC2ED067A3BE6C1
:1023400018F0400F3FF456AE28F0C0081FFA88F886
:10235000A8E618F4005F3FF44DAE28F402581FFAC7
:1023600088F89FE69AF80130012B7FF66AAF1E25A8
:1023700072E406F14C03099A16A8002118E092EDC8
:10238000006AD0ED006A93ED007AD2ED0F7A76EE16
:10239000666A36EEC77A77EE677AC3ED007A013166
:1023A000052902F1040200F1040003F1040317D02F
:1023B000029E0E41F607E2D4966A1E60EFE78E4950
:1023C000099A00230298184110F0010F04BF106809
:1023D00008600133052B02F1040201F10401F1D17F
:1023E0004FF0000B9AF80130502B7FF431AF1F25CE
:1023F00032E493ED007AD1ED007A77EE277AC3EDDF
:10240000007A0CE77C49072004F0B6FF00283FF46F
:1024100076AF029B002BD2D19B4600931CE77649F6
:10242000062004F0A9FF00283FF469AFF1E7DFF8C8
:10243000D8811C9398F890101D93C9071F9304D559
:102440009AF80D106A4B012932D0002A00F005815C
:1024500024F04904002C00F0D9801025FFF7FCBBC4
:10246000D3B1212B01F0D1804C2B00F08D87DAED18
:10247000067AF5EE407AF1EE10FA3FF4ECAD532B0C
:1024800000F29380512B80F08B80022B19D0032B0C
:102490001BD0012B7FF4E0AE029B002B14BF022364
:1024A00000230093D8E6029B002BA0D19B46D3E6E5
:1024B000D3ED137AB6EE007A67EE877AC3ED137A1E
:1024C000C3E7079B43F004030793029B002B3FF4F1
:1024D0003AAE0B9A0C99012303FA02F28B401A438D
:1024E000029B134202D12025FFF7B6BB0B99434E46
:1024F0000C9F0AEB810006EB8101D1ED098A3F496F
:1025000090ED137A3A4E0AEB8703D3ED137A01EB81
:10251000870393ED098A08F080039BB277EE688AFF
:1025200037EEC88A002B00F0C38728F080081422F9
:1025300006F14C0109981FFA88F80BF08FF8002873
:1025400040F097872125FFF787BB96F83000099A5E
:1025500006F14C030021029E0E41F70704D5142812
:102560000DD01E6843F8306C0131052902F10402D8
:1025700003F10403EFD135E79AF808B0B6E692ED1F
:10258000006AD2ED0A6A93ED007AD2ED0F7A76EE08
:10259000666A36EEC77A77EE677A43ED0C7AE3E740
:1025A00028F010081FFA88F856E68D2B05D01CD9A4
:1025B0008E2B06D08F2B7FF44FAE079A42F010027D
:1025C00007927233DBB2012B03D8079B43F0080359
:1025D0000793029B002B3FF4B6AD1422084909482B
:1025E0000BF03CF80028ADD036E68C2BE9D033E672
:1025F000CC0D00203333CB41E80D0020700C0020BF
:10260000180E0020940C0020E40C00209AF80030F2
:10261000352B02D0002B7FF420AF4B4B4A499C7ADC
:102620005B7A98F88F200E69DAF81800DAF834101F
:102630001C96234343F004038DF8743093061B90DB
:102640001E91424E40F1DE86304601F035FE0028F4
:1026500000F0D8860F25FFF7FFBA98F88F309F0754
:1026600013D59AF80130013B022B03D9079B43F0A5
:1026700040030793029B1BB1009B022B00F0D08606
:10268000314B9A7A102A00F0D386079B03F040045E
:102690002D499AF80230DAF834204B70CA611E9244
:1026A00013B108238DF8743027499AF80E20DAF810
:1026B00018304B611B932649234B002A34D191EDEE
:1026C000110AD3ED047AF4EE407AF1EE10FA02D159
:1026D000079B9E0612D51C4B987A38B1079B1D06A6
:1026E00004D474B39FED1B0A02F018FC1649DAF803
:1026F00044300B61002200230A624B7314B9124B61
:102700001B691C93104A9AF848301376089B1646AA
:10271000002B6ED098F86430002B6AD00E4D2B7DC4
:10272000E3B91225FFF798BA012AE7D1088A496C64
:102730005A7307EE900AF8EE677A1961C3ED087ACA
:10274000DCE702F0EBFBD1E7700C0020180E002054
:10275000CC0D002000000000980D00202B880024E4
:10276000022B21942094229423942494259426943B
:102770002794289429943CD003F03CFB7A497B4F62
:1027800025A801F0D5FD4FF0000CCDF89CC00DF14F
:10279000940EBEE80F000FC79DF88830DEF80020C9
:1027A000F1693A6043F00103239125A820A9CDF8EF
:1027B00080C0CDF884C08DF888308DF8904003F04B
:1027C00039FD142004F04EFB69486A496A4B8022A7
:1027D000C82646630C705A8303F00CFB2C462A88EB
:1027E000664B002A00F0BC8503F0F6FAA378002BB4
:1027F000F5D0634B9AF80B009B7A624D604C834294
:1028000005D09DED1C0A02F089FBEB7AA3725C4BAC
:102810005B4A9DF874109B7A9AF80A40527A0B43EF
:10282000A2428DF874300DD0544D2B88022B05D068
:1028300003F0E0FAAB78002B00F09985504A9AF843
:102840000A3053724E4B9DF874205B7A9AF8001050
:10285000134304298DF874304A4A00F069854849C9
:102860009AF806204A71009A9AF803308B70032A6E
:10287000444B00F04485424B9AF80870DB79404E97
:10288000BB4209D016AC0FCC06F138050FC5236842
:102890002B60F77101F06EFD9AF8003038489AF815
:1028A00004109AF80520C170262B0271044600F02E
:1028B000088540F2ED845C2B00F0E084662B00F08C
:1028C000D384282B03D10999072004F043FD9AF8FB
:1028D00001302B4A2B4E1370502B02D00099022945
:1028E00054D0274B9AF809501D721E46002D3FF414
:1028F000B3A903F07FFA337A032B204B2BD019882E
:1029000000246422012002291A725A729A723070CD
:102910007471F4707470F471B472747211D006F141
:102920003801204604F028FD00283FF4E8AC01F00F
:1029300021FD20469FED140A02F006FB204603F01D
:1029400025FF01F03FF8082005F000F80C4B0025AA
:102950001D72FFF781B91B88022BF7D0082001F008
:10296000DFF903F039FAF1E7B40D0020840D0020FF
:10297000000001402C0E002000040240980D0020B1
:10298000700C0020CC0D002000000000012B00F096
:102990000284002B00F0F383991E012940F29881F4
:1029A000A3F15101022900F22A81D6ED107A92EDAD
:1029B000107AD17892ED158A25AC77EE877A0023CC
:1029C000012937EE888A63602593A360E360236161
:1029D00000F09080D2ED1A7A1FED159A38EE278A12
:1029E000F0EE499ADAED157AF4EEC87AF1EE10FAC3
:1029F0003FF7A8ADDDED137AB4EEE78AF1EE10FAF9
:102A000065DCCDED277A9AF83020A74B12B9012268
:102A100083F83020A44D9FEDA5AA00269AF8302017
:102A2000F3B29A4240F2B48007EE903AD5ED136AC1
:102A300095ED147A9DF87430F8EEE77A43F00103CF
:102A400047EEA96A1BA9204607EE897A8DF87430F3
:102A5000CDED256A8DED267A03F0ECFB9DF8743000
:102A60008DED278A43F001031BA920468DF87430B1
:102A700003F0E0FB8E4B1B78532B65D09DF8743030
:102A80006A6D279223F001031BA920468DF874304C
:102A900003F0D0FB864B1B78522B47D0844B1B791D
:102AA000002B40D1DDED137AB4EEE78AF1EE10FA97
:102AB00039D5CDED277A9DF874301BA943F0010379
:102AC00020468DF87430013603F0B4FBA6E70A9E69
:102AD0000FCE25460FC59DF8743032682A6043F04A
:102AE00001031BA920468DED278A8DF8743003F071
:102AF000A1FB88E79DED137AD6ED157AD6ED139AF2
:102B00009DED116A96ED149ADDED126A38EE078A92
:102B100077EEC77A79EEC69A77EE887A39EE669ABA
:102B2000C6ED157A5EE78DED278AC4E7614BDAEDD5
:102B30000E8A1B88022BB1D003F05CF9B0EE680A54
:102B4000002000F0B3FEA9E7D5ED0F8A78EE688A81
:102B5000DAED157AF4EEE87AF1EE10FA24DB9DF85E
:102B60007430CDED277A23F001031BA920468DF8A0
:102B7000743003F05FFB9DF874308DED278A43F0CD
:102B800001031BA920468DF8743003F053FB81E745
:102B90000FCC494E256834460FC425600FCE099CE2
:102BA0000FC4336823609CE69DF87430CDED278A0E
:102BB00023F001031BA920468DF8743003F03AFB83
:102BC0009DF874308DED278A43F001031BA9204640
:102BD0008DF8743003F02EFB9DF8743078EE8A7A0D
:102BE00043F001031BA92046CDED277A8DF8743000
:102BF00003F020FBD5ED0F7A78EEE78AA8E7212BCA
:102C000000F053824C2B40F03982DAED0F7A9FEDC1
:102C10002B6ADFED2B6A0A9FD6ED108A96ED088AA3
:102C200096ED0E9AD6ED079A96ED09AA67EE867A8A
:102C30000FCF87EEA66A25AC25460FC53B682B60F3
:102C40009AF81250B1EE087AF4EEC78AF1EE10FA53
:102C500016EE100A58BFF0EE478A07F099FF41ECD4
:102C6000100B08F0CDFD53EC102B18EE100ACDE937
:102C7000002307F08DFFDDE9002307F0DDFF08F0FA
:102C8000D3FA0AEE900A03F0B5F80E4B1B8807EE54
:102C9000903AF8EE677ACDED1C7A002B40F0178160
:102CA0000825FEF7D9BF00BFCC0D0020CDCCCC3E0F
:102CB000700C0020980D0020180E0020DB0F4940FA
:102CC00000003443C80D0020BD3706B5DB0FC940F6
:102CD0000C9B0999D6ED109A9A000B9B06F11C04E7
:102CE000A0189B008F1890ED00BAD7ED00AA0090B5
:102CF000CD181C443244D4ED008A95ED00AA92ED23
:102D0000139A33447BEE2AAA93ED138A38EE8AAAEB
:102D100039EE6A9AB1EE4BBA38EE4A8AF1EE688A19
:102D20006BEE097A48EE887A2BEE088A17EE900A45
:102D300018EE898A07F02CFFCDE9020118EE100A7F
:102D400007F026FF9DED021B41EC100B08F0CCFDB7
:102D500051EC100B08F068FA079B590708EE100AAF
:102D600040F1A9805FED287AB4EEE78AF1EE10FA1F
:102D700003DB5FED2A7A38EE678AD8F8833079EE84
:102D8000A97A07EE103A77EEC77A67EE877A17EEE0
:102D9000900A07F0FDFE41EC100B08F0A7FDF6EEDF
:102DA000007A68EE277A53EC102B67EEA97ACDE90A
:102DB0000223F0EEE77A17EE900A07F0E9FEDDE96C
:102DC000022308F063F841EC100B08F07DFB51EC96
:102DD000100B08F009FA83B20BEE903A002B00F0CA
:102DE000DA819DF874301A07B8EEEB7A09D5DDED7B
:102DF0001B7A67EE877A23F008038DF87430CDEDE7
:102E00001B7AC8EE079A0D9B099ADFF8C4839B00D2
:102E100002EB030B534401264FF0000993ED136AB4
:102E2000DBED005A9FEDDF9A36EE656AF0EE007A30
:102E300086EE07CA49EEE97AF1EE006A77EEA66AF5
:102E400029EE899AB6EE008A29EE269A27EE888A1C
:102E50001BEE902AB3B29A4209F1010340F29B8122
:102E6000B9F1030F00F2B68129EE287A69EE0B7AE8
:102E700008EE0B7A5FFA83F958EE287AB0EE47BA7B
:102E8000F0EE678A3AEE287A7AEE8B7A85ED007A50
:102E9000C7ED007ADBED007AC34877EE8C7A1BA988
:102EA000CBED007A03F0C6F998F802300136002B1A
:102EB000CED0BE4E72E6DFEDBE7AB4EEE78AF1EE1A
:102EC00010FA9CBFDFEDBB7A38EE278A55E7D6EDC6
:102ED000136A9DED117A9FEDB86A07EE903A36EECF
:102EE000C77AF8EEE77AB0EEC77A67EE897AB4EE81
:102EF000C67AF1EE10FACDED1B7A2FD416EE900AB9
:102F000007F046FE064619EE100A0F4607F040FE8F
:102F10003246804689463B463046394607F08CFEAD
:102F2000424606460F464B464046494607F084FE59
:102F300002460B463046394607F0CCFC41EC100BFC
:102F400008F0D4FC51EC100B08F06EF9DDED1B7AA3
:102F500007EE100A67EE877ACDED1B7A00269FED0B
:102F600097CA9FED97BADFED97BADDF828903746FC
:102F70004FF00108002F00F06381002D99D0DDEDA6
:102F8000137A77EECB7A013DEDB2CDED137A1BA922
:102F9000484603F04FF9DDED137A9DF8743077EE73
:102FA0008B7AF5EEC09A43F00103F1EE10FACDED05
:102FB000137A8DF874304FD47FF725A8DDED117AA0
:102FC00079EEA77A38EE277A7AEE277A37EE0C7AFE
:102FD000B4EEE77AF1EE10FA8DED257A02D8CDED58
:102FE000257A01271BA9204603F024F902F002FFED
:102FF000731E07EE103ADAED157A9DF87430B8EECC
:10300000C77A23F0010347EE6A7A1BA92046B0EE87
:10301000490A8DF87430CDED277A03F0E9F99DF86F
:103020007430119A259243F001031BA920468DF8B4
:10303000743003F0FFF807B12DB11BA9484603F027
:10304000F9F8139B2793F4EEEB8AF1EE10FA00F2F5
:1030500002813CEE08CA8DE7DDED117A79EEA77AA0
:1030600037EEC87A77EECA7A37EE4C7AB4EEE77A62
:10307000F1EE10FA8DED257AB4D8B0E79DF87430F2
:10308000079A4C3643F004031BA930468DF8743080
:1030900003F0DCFC00283FF481AD01287FF421AC73
:1030A0004949414801F044F91BE4DDED137A9FEDF5
:1030B000447A0A9877EEC77A1BA9CDED137A03F00C
:1030C000B9F802F097FE414B1B8807EE903AF8EEF4
:1030D000677ACDED1C7A002B3FF4E2ADD6ED136A92
:1030E0009DED117A96ED098A9FED336A07EE903ACD
:1030F00036EEC77AF8EEE77AB0EEC77A67EE887AEE
:10310000B4EEC67AF1EE10FACDED1B7A2FD416EE9E
:10311000900A07F03DFD044618EE100A0D4607F030
:1031200037FD224606460F462B462046294607F025
:1031300083FD324604460D463B463046394607F08D
:103140007BFD02460B462046294607F0C3FB41ECB7
:10315000100B08F0CBFB51EC100B08F065F8DDED1F
:103160001B7A07EE100A67EE877ACDED1B7A0F48BF
:103170009AED090A1BA9064603F03AF90EE59DF8F7
:1031800074304C3643F001031BA930468DF874307F
:1031900003F050F802E505481BA9064603F04AF87B
:1031A000FCE400BFABAA2A3E940C0020180E0020BD
:1031B000BD370635DB0FC940ACC52737000000001E
:1031C0006F12833A4703803FB40D0020C80D0020E2
:1031D000980D002007EE906AF8EEE77A4FF00009AC
:1031E00067EEA97A17EE900A07F0D2FC41EC100BBB
:1031F00041EC1D0B08F008F951EC100B08F014F825
:10320000B0EE4D0AF0EE6D0A08EE900A08F098FA5A
:1032100051EC100B08F008F8009BD4ED007A93ED08
:10322000007A06EE900A28EE87BAF1EE677A26EE6B
:10323000877A08EEA77A16EEA7BAF0EE478A21E65B
:10324000DDED137A77EECB7A013677EEEA7AB6B215
:10325000CDED137A9BE698FBF6F307EE903AF8EE85
:10326000E77A07EE88CA85E600230365C3644365F1
:103270008365C36501F07EF8FFF729BBB84D0FCD1C
:103280004C340FC42B68236001F074F8FFF71FBBA8
:103290001C2B1CD01E2B1AD00A2B7FF418ABB14963
:1032A000584604F057F8E3795B457FF410ABAD4D19
:1032B0000FCD38340FC42B68236001F05BF8FFF7A3
:1032C00006BB0999062004F045F8FFF700BB9DF8FE
:1032D000743043F001038DF87430009B1BB11BA9BF
:1032E0009F4802F0A7FF9F4D9E481BA902F0A2FF36
:1032F0000FCD099C0FC42B682360FFF7E8BADA7979
:103300008A710AB900225A65B9F1000F20D1964B93
:10331000DAED157A93ED1A7AB4EE677AF1EE10FAD7
:103320003FF4A9AAC3ED1A7A01F024F8FFF7A3BA73
:103330008E4B92ED0E8A1B88022B3FF490AA02F06E
:1033400059FDB0EE480A002000F0B0FAFFF787BA46
:10335000B9F1000F3FF48FAA00F018FBFFF78BBA0A
:103360004FF400721A8003F009FAFFF742BA6006C0
:1033700040F1598103F1804303F5013301221A839F
:1033800000232B73FFF75ABA18F0400F3EF432AE09
:1033900018F4805F3EF4D7AE18F00E0F3EF42AAE5C
:1033A00018F0800F08D09AED107AF7EE007AB4EE9C
:1033B000E77AF1EE10FA22D418F0100F04D09AF840
:1033C0003030032B3EF61FAE18F4005F0FD0DAED5D
:1033D0000F7AF5EEC07AF1EE10FA3EF514AE9FEDDD
:1033E000647AF4EEC77AF1EE10FA3EF70CAE28F4E8
:1033F000035828F01E081FFA88F8FEF72DBF009D1D
:10340000FEF72ABC594C56481BA902F013FF23882B
:10341000FBB10FCE099C0FC433682360FEF71CBCC0
:10342000079B43F08003079303F04004FFF730B994
:103430001B78079A013B022B134615D812F0400463
:103440003FF426A943F02003079303F04004FFF75D
:103450001FB902F039F80028DBD02023238001F0C7
:10346000D7F801F051F8D4E712F040047FF410A926
:10347000E8E7F378012B07D1D6ED107A9FED3D7A7E
:1034800067EE877AC6ED107ADAED106AB1EE007A4F
:1034900026EE877A68EEA87A57EE267A48EE487AC2
:1034A000F5EEC07AF1EE10FA08D52225FEF7D4BB6E
:1034B00004990A4266D12325FEF7CEBB17EE900A87
:1034C00007F066FB41EC100B08F010FA53EC102BE0
:1034D000F0EE480AB0EE680ACDE9042300F0D2F914
:1034E000DDE9042310EE100A164603F1004707F049
:1034F0004FFB0B4602463946304607F0C7FC07F043
:1035000093FE1D4B9AED107A5B7807EE900A032B21
:10351000B5EEC07A08BFF1EE677AF1EE10FA164BFD
:1035200005D5B1EE477A83ED107AF1EE677AB0EE09
:10353000687A08EE677A0B9B08EEA78A0AEB83028B
:103540000C9BF6EE007A27EE277A68EE277A0AEBD4
:10355000830382ED077AC3ED077AFEF77DBE00BFD5
:10356000180E0020E80D0020700C0020980D00209F
:103570000000A0423333CB41CC0D00200AD7A33B3F
:103580006F12833AF27828F00E08012A1FFA88F8A1
:103590004DD00C9B9F1D0B9B9E1D0AEB87070AEBD2
:1035A0008606D7ED010A96ED010A78EE600A38EE3C
:1035B000C00A00F067F9D7ED010AB0EE408A96ED37
:1035C000010A00F05FF978EE407A1FED147A8AED77
:1035D000100AF0EEE77AF4EEC77AF1EE10FA7EF711
:1035E0003BAEB6EE007AF4EEC77AF1EE10FA3EF793
:1035F000A9AF1FED1D7A20EE070AF4EEC07AF1EEB6
:1036000010FA3EF79FAFFEF727BE18F0080F3EF402
:10361000F1AC28F0080318F4E05F9BB23EF493ADE0
:103620009846FEF719BE0C4B01225A83A8E69FED7F
:103630000B7A1C36049A1A4112F0010F03F10103B0
:1036400005D0D6ED007A67EE877AC6ED007A032BB7
:1036500006F10406EED19CE7000402403333CB416F
:10366000704700BF704700BF704700BF704700BF82
:10367000FEE700BFFEE700BFFEE700BFFEE700BFBA
:103680002DE9F843334B1A69002A03DA3249334AE9
:1036900059605A6003F0C6F909283BD02D4B1A69CE
:1036A00042F000421A611A69002A03DA2A492B4AB9
:1036B00059605A602A4C274E04F5806804F10109CC
:1036C00002E0A8452C461ED0677803F0ABF9092824
:1036D00004F10105F5D13269224B22F440723261C6
:1036E0003269326132692344C9EB030342F00102BB
:1036F00032611F7003F096F93369A84523F0010386
:1037000033612C46E0D1134A136943F0004313613F
:10371000BDE8F8830F4C236923F4407323612369C8
:1037200043F400732361236923F0F80323612369C1
:1037300043F03A032361236943F48033236103F0A8
:1037400071F9236923F002032361236923F0F8034D
:103750002361A3E7003C024023016745AB89EFCD1D
:10376000EF0000200100060870B49AB102440B4E2D
:1037700095B2002211F8014B3454D309013043EAC9
:10378000420280B254FA82F2A842D2B2F2D1725509
:1037900070BC7047014E0546F9E700BFF0000020FD
:1037A00070B4BAB10A440D4E95B20022745C00F8B0
:1037B000014BD309013143EA420289B254FA82F241
:1037C000A942D2B2F2D1705D801AB0FA80F04009FD
:1037D00070BC7047014E0D46F5E700BFF0000020B9
:1037E0009FED0E0A01F11403F1EC017AF5EE407A37
:1037F000F1EE10FA0CD0D0ED006A86EEA77AF0EE6A
:10380000C77AF4EEC07AF1EE10FAD8BFB0EE670ACC
:10381000994200F10400E7D1704700BF9976967E87
:103820009FED177A38B5044600F114050346F3EC12
:10383000017AF5EE407AF1EE10FA1CBF67EEA77A36
:1038400037EE277AAB42F2D117EE100A07F0A0F953
:1038500041EC100B08F04AF851EC100B07F0E4FCB7
:1038600000EE100AF7EE007A87EE807AD4ED007A47
:1038700067EE877AE4EC017AAC42F7D138BD00BF3D
:103880000000000060EEA00A40EE000A08B510EE4D
:10389000900A07F07DF941EC100B08F027F851EC85
:1038A000100B07F0C1FC00EE100A08BDF3EE047A1D
:1038B00060EE277A70B5064617EE900A07F068F9B1
:1038C00041EC100B07F010FD51EC100B07F08CFCD5
:1038D00080B2B8B10C4DAB780446A3B96EB902F012
:1038E0007BFA322003F0BEFA012C04F1FF3409D038
:1038F000AB78A4B2002BF1D070BD01F01FFEEB78C5
:103900009B07EED570BD70BD980D0020084B93F855
:103910008F0010F00100F0EE407A01D103F06CB995
:103920009FED040A012027EE800A03F065B900BF6D
:10393000E40C00208B42213D084B93F88F30DB07CD
:10394000F0EE407A02D4032003F056B99FED040A4A
:10395000042027EE800A03F04FB900BFE40C0020DA
:103960008B42213D084B002203F5A0711A605A607A
:103970009A60DA6010338B42F8D14FF4A07202499A
:10398000B420FFF7F1BE00BF280B002010B50B4C90
:10399000237E132B0BD90C2003F0D8FF00231946EC
:1039A0001846012220666166A366A27110BD044A12
:1039B00002EB0313186859689B68F2E7700C00204B
:1039C000280B002070B40B4A0B480C4D0C4C002304
:1039D00000210126036043608360C360036193712B
:1039E000116651669166D16611672E70236070BCB6
:1039F000704700BF700C0020840D002000000020E4
:103A0000680C0020EFF3108372B6034A1178084364
:103A1000107083F310887047F0040020EFF31083D8
:103A200072B6034A11780843107083F31088704708
:103A3000ED000020EFF3108372B6024A107083F39A
:103A400010887047EE000020F0B583B002F064FEED
:103A5000904D064610B12B78002B6CD000F094FCF2
:103A60008D4C074618B12378002B00F0A9802B78E5
:103A7000884A0BB1002E59D02378874A0BB1002F0A
:103A80004FD0864C23680133236023681B076ED018
:103A90002268834BA3FB0213DB0803EB830303EBD6
:103AA00083039A423BD17F4A7F4B11685B6A7F4C0C
:103AB0009FED7F7A9FED7F6ADFED7F6A7F48804AC6
:103AC000057811FA83F1238889B299423DBFC3F585
:103AD0007F43FF335B18CB1A07EE903AF8EE677A14
:103AE0006B1C67EE877ADBB287EE867A022B037057
:103AF00084BF00230370218067EE267AFCEEE77A0C
:103B000017EE906A42F825601368506892686D4E0F
:103B10006D4D03441344A6FB03235B082B6003B0E5
:103B2000F0BD1378013BDBB21370AAE71378013BB9
:103B3000DBB21370A0E7654B93F87A30D8068DD5C9
:103B4000634A12881421012A297087D0614A1278A9
:103B5000002A83D1990604D502F0DEFD00283FF447
:103B60007DAF02F063F90120FFF764FF76E7584B61
:103B70005B7D002B8CD0584B1A78002A3DD1574ED4
:103B8000574DB26829688A4282DC5649564F91F8EF
:103B900030104FF0000E0120C7F800E0187011B18E
:103BA00004F020F9B26851482A603F4B3D49002299
:103BB00002605B6A09684E4A11FA83F3138067E773
:103BC0001423237000F0E0FB00283FF450AF82077D
:103BD0005BD4030705D5474A13889BB243F0020321
:103BE000138041074AD4C2077FF541AF414A138889
:103BF0009BB243F02003138039E72B4B294A5B6AC1
:103C000012683B4E394DDFED2B7A28683349344F2B
:103C100089683F6812FA83F332889BB293423DBFB2
:103C2000C2F57F42FF32D2189A1A024407EE102AD8
:103C3000B8EE476A2548338086EE277AC91B80682C
:103C40002D4B2A60284A07EE901AD3ED006A254BC7
:103C5000F8EEE77A06EE100A67EE266A87EE867AB5
:103C600093F8303077EE267AC2ED007A0BB104F08B
:103C7000B9F8224A224B12681A6009E71D4A1388D4
:103C80009BB243F008031380ADE7019002F0CEF839
:103C90000198A6E7F8110020700E00204C2F00209C
:103CA0001F85EB51A0240020000800402E0E0020AC
:103CB000000020420000B4430000704201130020C5
:103CC000840E0020ABAAAAAAC80D0020E40C002094
:103CD000980D0020EE000020800E0020B40D002082
:103CE0007C0E0020502E0020780E0020FC110020B9
:103CF000FA110020F2040020300E0020340E0020C3
:103D0000740E0020EFF3108272B604490B889BB248
:103D100023EA0000088082F310887047F204002034
:103D2000EFF3108372B604490A8892B210430880F8
:103D300083F31088704700BFF204002000000000E9
:103D40002DE9F04F7E4C83B00221204602F05AFD4F
:103D500078B90121204602F055FD10B903B0BDE845
:103D6000F08F00F05DFB4FF6FE73238203B0BDE8D9
:103D7000F08F744CA37DDA0709D5734A127812F0DC
:103D8000010F724A4FF4806114BF518311839F0762
:103D900009D56D4A127812F0020F6D4A4FF00801F2
:103DA00014BF518311835E0709D5674A127812F058
:103DB000040F674A4FF0200114BF518311831D0780
:103DC00000F19B80656B5F4B002D00F0CB8003F111
:103DD0001C0898E8000F5F4E9A69B6F800C01D6B8A
:103DE0000092DFF87CE19EF80030012B00F0518159
:103DF00000232268A37500986B69524910449842C9
:103E0000206011D901238B754A6B6B69D279C71A6F
:103E10000F604AB92A7E504912F0010F0A6814BF98
:103E200002F1FF3201320A606268464942449A4216
:103E3000626013D98B7D486B43F002038B756B690D
:103E4000D21A4A60C2794AB92A7E434912F0020F57
:103E50004A6814BF02F1FF3201324A60A268394950
:103E60004A449A42A26013D98B7D486B43F0040305
:103E70008B756B69D21A8A60C2794AB92A7E364933
:103E800012F0040F8A6814BF02F1FF3201328A6017
:103E9000E2682C4952449A42E2600FD98B7D287E19
:103EA00043F008038B756B69D21ACA602A49CA6845
:103EB00000074CBF02F1FF320132CA60226921497A
:103EC0005A449A42226123D8BCF1040F33D0A38D07
:103ED0001C4A013B9BB2A38543B9204953630A782E
:103EE0000132D2B2202A0A7008BF0B70144B4FF671
:103EF000FD721A8203B0BDE8F08F134B1B7813F0EC
:103F0000080F134B4FF0020214BF5A831A8359E76C
:103F10008B7D287E43F010038B756B69D21A0A6182
:103F20000D4A1369C1064CBF03F1FF330133BCF1E5
:103F3000040F1361CBD1A27DF3791340A375C6E7BB
:103F400000400140380E0020810E00200000024099
:103F500000040240980D0020B40D00202D0E00201A
:103F6000EB000020BA4ABB4811780078884200F084
:103F7000DC801178B84A02EBC1025A635388C72B20
:103F800040F2A88007EE903AF8EEE77AB34E727DE1
:103F9000012A00F0B5809FEDB27A67EE877AFCEED9
:103FA000E77ACDED007ABDF80020AE48616BC362C0
:103FB00042630B88A3850A7994F82E10AA4B91428C
:103FC00000F09C80A94983F82E20C2EBC20201EBCD
:103FD000820119634A6952081A61DA609A605A606C
:103FE0001A60A34B0A7E1B785340A24AE375D80798
:103FF0004FF010014CBF118351839E4A9F074FF42D
:1040000080614CBF118351839B4A5D074FF48071DF
:104010004CBF1183518313F0080F964B97494FF013
:10402000040214BF1A835A83256B636B28685F7977
:10403000497B8D4AF840A06193F80580009068683C
:1040400020FA08F8C4F81C80A86893F8059020FAB4
:1040500009F9C4F82090E86893F805A020FA0AFA54
:10406000C4F824A093F805B0286920FA0BFBC4F823
:1040700028B0002933D09B79012B07D0804B804A90
:104080001B78013BDBB21370002B67D0B6F800C081
:10409000A7E67C4B7C4A1B69127803F001039A4225
:1040A0003FF4A6AE794B1F460FCF01974FF00007A4
:1040B0008EF80070764FBE46AEE80F00754A019F3D
:1040C00013883A68CEF800209BB2724A43F040034E
:1040D00013808DE6C823DFED707A538056E7987918
:1040E000009200F0B1FE009AB6F800C09369009308
:1040F00002F11C08156B98E8000F72E6196B70E767
:10410000664A92ED007A67EE877AFDEEE77A17EE5F
:10411000902A1A44B2F5803F134680F28580952A92
:1041200000F38A805A2296233FE72846009300F046
:104130009DF9009B1B6B5B7E63B1594A5949C823AB
:10414000C72050635363138823F001031B041B0C27
:1041500013800D700420FFF7E3FDC7E64B4A524B76
:10416000D2ED006A1B68454A9FED506A92ED0E7AC7
:10417000D2ED137AD2ED185AF8EEE66A05EE103A4F
:1041800077EE277A86EE857A77EEA57A77EE677AEC
:10419000B0EEE77AB4EEC67AF1EE10FAC6ED067A22
:1041A00047D417EE100A06F0F3FC02460B4606F061
:1041B00091FB25A3D3E9002306F03EFD07F034F878
:1041C000DFED3B7A07EE100AC7EE276A2B4BD3EDE3
:1041D000087A93ED047AF5EEC07AF1EE10FA87EEE4
:1041E000260A06DDB4EEE70AF1EE10FA58BFB0EE8B
:1041F000670AB6F800C0194B86ED040ABCF1020F3D
:1042000001930DD000F0A4F904F11C0800F01CFE8D
:1042100098E8000F019B256BB3F800C0A3690093D9
:10422000174A14231370DCE549F699124FF6FF7311
:10423000BBE6DFED206AC9E707EE902AF8EEE77AE1
:10424000A9E600BFAFF3008000000060FB21094039
:104250002D0E00200013002000120020980D0020D9
:104260009A99193F00400140380E0020940E00201A
:10427000900E00200004024000000240700C00205C
:104280000100002000080240EC000020B40D0020D6
:10429000F4040020F204002000004843740E0020C3
:1042A000000001402C0E0020E40C0020ACC5273794
:1042B00000007A442EE34D3B70B41C4D95F891609C
:1042C000002346FA03F203F10E0112F0010F05EB91
:1042D000810403F1010317D090ED007AB5EEC07AA6
:1042E000F1EE10FA1FD4626807EE902AF1EE677AB9
:1042F000B4EEE77AF1EE10FA15DC052B00F10400BC
:10430000DFD1002070BC7047D0ED007AF5EEC07AA6
:10431000F1EE10FA07DC626807EE102AF4EEC77AB5
:10432000F1EE10FAE9D5012070BC7047E40C0020D2
:1043300010B40E4A002352F82340DFED0D7A07EE49
:10434000104AB4EE677AF1EE10FA07D051F8234024
:1043500007EE904AF8EEE76AC6EE877A0133052B3E
:10436000E0EC017AE7D15DF8044B7047E40C0020E3
:104370000000000008B501F03DFD024B00225A7319
:1043800008BD00BF980D002030B4164B164A1869BE
:1043900019691D69154B126993F87A3001F002040E
:1043A000C5F3001100F0010044EA81010143C2F3AA
:1043B000002241EAC20203F00F0353400FD013F072
:1043C000010F0CBF002002209A0744BF40F00400F8
:1043D000C0B25B0701D540F0080030BC70471846FA
:1043E00030BC70470000024000040240E40C002092
:1043F0000949086878B110B4084BD3ED077A5A78A8
:1044000067EEA77A002442F001025A70C0ED087AE4
:104410000C605DF8044B70470C1300201013002053
:104420000F4B104A1B784FF48061D8074CBF1183A3
:1044300051830D4A98074FF008014CBF11835183F7
:10444000094A58074FF020014CBF1183518313F0E4
:10445000080F054B4FF0020214BF1A835A837047AE
:10446000810E0020000002400004024030B5214AC5
:10447000138823F0010383B01B041B0C1F2113803E
:1044800001910546019B18460138FDD81A4CFFF7EB
:10449000C7FF94F87D00FF2812D0184B1B88042B0F
:1044A00018D10023DDB994F88F20520748BF83F05C
:1044B0000103C3B9124B4FF400725A8303B030BDED
:1044C000104B1A7802F0FF03002AE6D10B4A12883B
:1044D000802AE7D102F0C6FC0123002DE3D094F836
:1044E0008F305B07E6D4064B4FF400721A8303B09B
:1044F00030BD00BF00400140E40C0020980D0020BA
:1045000000000240EE00002008B50C4B93F88F30FD
:1045100013F0040F0A4B4FF4007214BF1A835A832E
:104520000A2002F09FFC074A074913889BB243F018
:10453000010300201380887508BD00BFE40C002033
:104540000000024000400140380E00200000000042
:1045500008B52B4BD3F88B20D3F8873006EE902A82
:1045600007EE903AF4EEE76AF1EE10FA254B03DB22
:10457000C3ED047AC82008BD9A7A9FED236A07EE3E
:10458000102AB8EEC77A27EE067A27EE000AB4EEB4
:10459000E70AF1EE10FAEBDAB4EEE60AF1EE10FA01
:1045A0000CD8B5EE400AF1EE10FA4FF000020BBF46
:1045B0001A61C3ED046A0120FF2008BD134A83ED90
:1045C000040AD2ED007A30EE660A60EE277A17EE22
:1045D000900A06F0DDFA41EC100B06F075FF06A319
:1045E000D3E9002351EC100B06F074F906F0FCFD42
:1045F000C0B208BDAFF300800000000000E06F40D3
:10460000E40C0020980D00200AD7233C041300205E
:104610002DE9F04FDFF88C832DED088B98F80530ED
:10462000DB0783B000F153829FEDD59A9FEDD5AAA9
:10463000DFEDD59ADFF85CA3D44BD54A1B7812780E
:104640009A4200F04482DAF80050D24C002D00F07B
:10465000FD81D14CD14A237DDFF85893D04E99F893
:10466000007094F800E0D4ED043ADFEDC58A94EDD3
:104670000A5AD4ED0B2ADFEDC37A94ED084A94ED83
:10468000077AD4ED065AD4ED091A217D4FEAC70BFB
:1046900006EB0B00F0EE676A80F804E095F840E066
:1046A00080F807E095ED0B2A72EE633A0020F4EEF5
:1046B000683AF1EE10FAB4EE625A48BFF0EE493AA9
:1046C000F1EE10FAB0EE428A14BF4FF0010C4FF039
:1046D000020C8646B6EE003A31E060D3032B42D19D
:1046E000D5ED0A4A67EEA44A24EE836A37EE466A9D
:1046F00026EE276A38EE468AB4EEC58AF1EE10FA45
:104700007CD4B5EEC06AF1EE10FA77D937EE647A50
:10471000012078EEA78AF4EEE68AF1EE10FA06D4CC
:10472000B4EEE38AF1EE10FA7FDD76EE8A6AF4EEFB
:10473000C85AF1EE10FA76EEE87A0B4675D5012BE1
:10474000CBD127EE846A38EE466AF4EEC62AF1EE43
:1047500010FA63DD38EE628A9E46C8EE047A0221C2
:10476000B0EE628AD5E795ED0A6A27EE866AB4EE66
:10477000C76AF1EE10FA33D566EE034A77EE644A63
:1047800064EEA74A78EE644AF4EEE54AF1EE10FAD8
:1047900026DD37EE467AB0EE648A0120B9E7D5ED22
:1047A0000A4A67EEA44A24EE836A36EE076A26EECA
:1047B000276A38EE468AB4EEC85AF1EE10FA30DDB8
:1047C00072EE457A34EE077A37EEA76A0120C6EE1C
:1047D000077A86466146B0EE447AB0EE458A98E79D
:1047E00038EE658A31EE876A38EE088AB0EE617A73
:1047F000C8EE067A0120B0EE658A8AE772EE457A45
:1048000034EE077A37EEA76A0120C6EE077A8646AD
:104810000146B0EE447AB0EE458A7AE7B0EE468AB9
:1048200077E737EE247A012073E7BEF1000F40F0FE
:104830000183002840F0F78213685B7E002B40F074
:10484000BB8098F80530180700F1DD8094F834201B
:10485000D4ED03AA06EB0B0368EE2AAA9A711AEEAE
:10486000900A06F095F941EC100B06F03DFD51EC75
:10487000100B06F0D9FC0BEE900AA06806F088F940
:1048800041EC100B06F030FD51EC100B06F0CCFCA7
:1048900007EE900A37EEEB7ABCEEC77A8DED007A20
:1048A000BDF8005026F837502DB998F805303D4A2C
:1048B000990700F1628294ED017A77EEEA7A78EE58
:1048C000878A88EEA7BA6BEE297A17EE900A06F06F
:1048D0005FF941EC100B06F007FD51EC100B06F0F0
:1048E00083FC40F6B733984276D806EB0B030022E0
:1048F0005A715E447080264B254A1B7889F8003037
:104900000133DBB2202B7BEEEAAAD4ED067AC4EDAC
:1049100002BA08BF002313702AEE8BBADAF800300F
:1049200084ED01BAB4EE678AF1EE10FA83ED0B8ADA
:10493000184B7FF481AEB5EEC08AF1EE10FA00F3A9
:104940007B8298F80520174802F0040101F0FF046B
:10495000002940F06B82144914480A7800781C60E2
:1049600090423FF467AE1248531CDBB20478402BF0
:1049700008BF0023944208BF03700B7058E600BFC5
:1049800000000000CD70A63850A9AB4E2D0E0020BF
:10499000021300200C1300201013002048130020E5
:1049A00000120020980D0020091300200813002099
:1049B0004C130020001300206B7E13F0300F3AD10F
:1049C00098F8053088ED049A012284F8342023F009
:1049D000080388F805303BE741F26F73984220D80E
:1049E00006EB0B0201235371D8409D40B0F5803F88
:1049F00026F83750C84BFFF47CAF9B444FF6FF734B
:104A0000ABF8023077E76A7E12F0300FDAD095ED1E
:104A10000F0AFFF79DFD98F8053084F83400024630
:104A2000D5E742F6DF63984206EB0B0294BF022300
:104A300003235371D8E794ED070A94ED0C7AD5ED72
:104A40000F7A20EE070A20EE270AE2E798F80560C1
:104A5000770736D5B14BB24D1B7803EB031305EB4B
:104A600083052560AF4C607810F001016BD0002306
:104A7000AD4A637095ED0A7A84ED069AF6EE007AF7
:104A800006F0020387EE878A03F0FF01A54F1BB3F0
:104A900002233B7595ED086AD5ED0B6A68EE067A40
:104AA00076EEE77AF5EEC07AF1EE10FA00F16D815C
:104AB000C7ED067A87ED099A46F0080688F8056082
:104AC000CAE500F001FD054620600028CAD103B008
:104AD000BDEC088BBDE8F08FD5ED0BAA39757607D4
:104AE000C7ED0AAA40F1D280DFED938A87ED099ADB
:104AF0002846009200F074FC95ED087A009A60EE6A
:104B0000007AF4EEC77AF1EE10FA40F1908037EEB9
:104B1000677A844E27EE087A3AEEC77AB5EEC07A05
:104B2000F1EE10FA84ED0A7A40F24D8177EEE87AE0
:104B3000032327EE888A86ED080A86ED0B8A3375F3
:104B400098F80560B8E72778DFF8E891764A95F895
:104B500018C00137FFB21F2F08BF0F464FEAC70B1F
:104B6000C7EB0B034FEA830309EB030E18BF39466B
:104B7000043B8EF818C02170C2F800E009EB030175
:104B8000A5F1040E05F1100C5EF8043FDB00F445BE
:104B900041F8043FF8D16B6984ED019AC7EB0B0132
:104BA00009EB8101DB004B61D5ED057A95ED0B6AD0
:104BB0005C4BF8EE677AF7EE046A87EE867AB60702
:104BC000C4ED027AC6EE877A84ED037AC4ED047AE6
:104BD00002D4010740F18680D4ED097A27EEA77A46
:104BE00020F008006070C4ED077A85ED087A4F4B1D
:104BF000C7EB0B0793F88F3009EB870900219B0760
:104C000089F8191010D56B7E9F060DD595ED0E7A9B
:104C100098F80560F7EE006AC6EE877A012389F8F6
:104C20001930C4ED0C7A25E798F8056022E737EED5
:104C3000687AF6EE006A27EE087A37EE2A7A27EECF
:104C4000267AB5EEC07AF1EE10FA5CDDB4EEEA7ABF
:104C5000F1EE10FA41D577EEE86A324F66EE886AD7
:104C6000B4EEE67AF1EE10FAC4ED0B6A66DD87ED7C
:104C7000080A95ED087AF4EE477AF1EE10FA40F062
:104C8000C48001233B7598F8056015E7284B23493C
:104C90001B7809780133DBB2402B08BF002399420F
:104CA00000F08C801E49009203EB031301EB830399
:104CB000D3ED088A18EE900A05F06AFF009A009278
:104CC00041EC100B06F012FE51EC100B06F0ACFAA2
:104CD000D5ED0BAA6062009A0AE70223237598F8C3
:104CE0000560E9E6286A0192009305F051FF41EC66
:104CF000100B06F0FBFD51EC100B06F095FA009B33
:104D0000019AD86173E7616A98F80560237D84EDA4
:104D10000A9A2162D0E600BF00120020081300208A
:104D2000501300201013002048130020E40C002032
:104D300009130020940E00200000000087ED0A7A7D
:104D400087ED0B7AD5ED0A7A009277EEA77A27EEF7
:104D5000877A77EE287A17EE900A05F019FF41EC72
:104D6000100B06F0C3FD51EC100B06F05DFA3B7D15
:104D7000386298F80560009A9EE643F0010353718B
:104D800003B0BDEC088BBDE8F08F37EE077A0092D8
:104D900067EE266A76EE667A17EE900A05F0F8FE60
:104DA00041EC100B06F0A2FD51EC100B06F03CFAA2
:104DB0003B7D786298F80560009A7DE6002000212E
:104DC0005FED238A7BE7D5ED0A7A95ED087A77EED9
:104DD000A77A022367EEAAAA337577EE6A7A17EEEE
:104DE000900A05F0D5FE41EC100B06F07FFD51EC6A
:104DF000100B06F019FA7378706243F008037370B1
:104E0000009A337D98F8056056E677EEC77AD7EDBD
:104E10000A6A3B7D98F8056027EE888A76EEC87AA4
:104E2000C7ED0A7A48E684ED077A05E542F001020B
:104E300042714CE62175FCE498F8053043F001031B
:104E400088F8053043E600BF0D4AC0F1C8030128C9
:104E5000536308D013880B499BB243F00103012030
:104E6000138008707047C82353631388054923F0E3
:104E700001031B041B0C002013800870704700BF47
:104E8000000001402C0E0020F8B5F0B110282AD007
:104E90001A4B1B4E93F88F301A4C1B4A20270025C3
:104EA00080219B0737832570118307D4FFF750FBC0
:104EB000FFF7CAFF154B00221A73F8BDDFED147A15
:104EC000B84208BFB0EE670AF0E7104B0E4A114D2A
:104ED000114C00211961C82680216E632070518316
:104EE00000221A73F8BD064C0649074B2025012005
:104EF0008022658308701A83D8E700BFE40C002085
:104F0000000002400200002000040240980D002032
:104F100000000000000001402C0E002070B5094C7C
:104F20002388022B06D010EE106A054600F062FFBF
:104F3000A37803B170BD00EE106A2846BDE870404A
:104F4000FFF7A2BF980D0020024B9B780BB9FFF72B
:104F50009BBF7047980D00202DE9F047DFF84C917A
:104F6000DFF84C81D9F830304B4D82B043F0070365
:104F7000C9F83030002401262023404669464FF00E
:104F8000030A009380278DF804608DF805A08DF842
:104F900006408DF8074001F0B1FC694628468DF8BF
:104FA00004608DF805A08DF806408DF80740009745
:104FB00001F0A4FC0223694640468DF804308DF8C8
:104FC0000730009701F09AFCD8F820203348344B82
:104FD000D0F88710D0F88B00DFED326ADFF8D4C04C
:104FE00022F07042C8F82020D8F8202042F08052E9
:104FF000C8F82020D9F844203243C9F844201A8840
:1050000022F45C72120407EE900A120C4FF0C70EE5
:1050100053201A8007EE101AC3F82CE018851C865E
:105020009E821A8CDFF890E077EE677A22F0010218
:1050300086EEA77A1204120C1A841A8C9888198B9F
:1050400022F00E0220F4407021F0730112040004DB
:105050000904120C000C090C42F0060240F48070A6
:1050600041F07001988019835C631A84B3F844207E
:105070000D496FEA42426FEA524292B2C820A3F849
:1050800044208CF800608EED007A58630C706F83BA
:1050900002B0BDE8F08700BF00040240E40C00202D
:1050A0000000014000005CC22C0E002000380240CD
:1050B0000000024002000020041300202DE9F84FF8
:1050C0001D4B1E4A93F87BA093F87CB0002313700D
:1050D0001B4A1C4698461E4699461F4613704AFABC
:1050E00004F3DB07E5B218D44BFA04F313F0010F15
:1050F00004F1010409D1052CF1D1B9F1000F14D14B
:10510000B8F1000F14D1BDE8F88F284602F000F97D
:105110003043C6B24FF00108EDE7284602F0F8F838
:105120003843C7B24FF00109DEE7044B1F70E7E7D1
:10513000034B1E70E7E700BFE40C0020810E002047
:10514000900E002070B500203825154C154EFFF745
:105150008DF92A460021144802F05CFF2A462046B9
:10516000002102F057FF114D1148124A002301217E
:10517000037011702B703360FFF7A0FF0E4B1B788C
:10518000E375FFF74DF90D4B0D4910254FF4806481
:105190004FF4807004225D835C8348835A8370BD22
:1051A000380E00200C130020101300202D0E0020BC
:1051B0000013002002130020900E00200004024083
:1051C000000002402DE9F84FDFF8A4B19BF8001071
:1051D000002900F0B2804B1EDBB2624F3878984253
:1051E00000F0A9804FEA03195F4E09EB030206EBBA
:1051F000820292ED0A7AD2ED0B7AD2ED096A37EE8D
:10520000077A67EE277AF4EE676AF1EE10FA48BF84
:10521000F0EE667AC2ED087A002B00F090805D1EF9
:10522000EDB2A84200F08F809944DFF840A106EB70
:1052300089092AE0DDB29AF80030AB4232D004EBA3
:10524000041406EB8403D3ED096AD3ED087A3878A9
:10525000F4EE667AF1EE10FA14D093ED0A7AD3EDFB
:105260000B7A99ED086A37EE077A27EE277A77EE00
:10527000067AF4EEE76AF1EE10FAD8BFF0EE667A3D
:10528000C3ED087AA842C1460FD005EB05186B1E86
:1052900006EB88082C46002DCCD19AF800303F252B
:1052A000AB42CCD1FFF7A4F8C9E79BF800E03D780A
:1052B000431CDBB2402B00EB001008BF002306EBC1
:1052C000800000242DE0D0ED086A91ED087AF4EE1C
:1052D000C76AF1EE10FA14D5D0ED0A7A90ED0B6A98
:1052E00077EEA77A67EE867A77EEA67AB4EEE77A5B
:1052F000F1EE10FA05DDB0EE677AC1ED087A1D46D1
:105300000124D2ED097AF4EE477AF1EE10FA08BFE3
:105310001D465FFA8CF308BF0124402B084608BFE6
:1053200000231A01D11806EB810173450A4603F1E7
:10533000010CC8D19CB9BDE8F88F3F234DE73F254C
:10534000A8427FF471AF094B1B78834201D08E468F
:10535000ADE7FFF74DF89BF800E03878A7E73D7020
:10536000E9E700BF4C130020501300200913002070
:1053700008130020084A094B92F98F2000218A4225
:10538000A8BF01221970A8BF1A7018B11A7882F04C
:1053900001021A70704700BFE40C0020EC000020EE
:1053A00008B5FFF725F8044A044B12781A70BDE8D7
:1053B0000840FFF707BF00BF091300204C1300206F
:1053C000054B064A03F1140053F8041B42F8041B72
:1053D0008342F9D1704700BFB40D0020542400204F
:1053E000437ED0ED0E7ADA0715D5174BDFED176A3D
:1053F0005B7A07EE103AB8EEC77A27EE267A67EEA8
:10540000877AB6EE000AF4EEC07AF1EE10FAC8BF61
:10541000B0EE670A70475B070BD40B4BDFED0B6AEE
:105420001B7A07EE103AB8EEC77A27EE267A67EEB7
:10543000877A90ED0D7AF4EE477AF1EE10FAC8BF54
:10544000F0EE477ADDE700BF980D00200AD7233C35
:1054500070B5184A184B11781E789FED186A184DD0
:105460001CE0FFF7BDFFB4EEC06AF1EE10FA4CBFCE
:1054700026EE066A20EE006AD4ED0C7A84ED096A05
:10548000F4EEC67A0131F1EE10FAC9B248BFC4EDAC
:10549000097A402908BF0021B0EE406A01EB0114EF
:1054A00005EB8404B1422046DBD1064B83ED0A6A4A
:1054B00070BD00BF09130020081300209976967E66
:1054C0005013002054240020064B074A1B78127802
:1054D0009A421DBF054803EB031300EB8300002035
:1054E000704700BF0913002008130020501300204C
:1054F00008B5FFF7E9FF20B10220BDE80840FEF73C
:105500000FBC08BD38B52C2200210748074D084CB8
:1055100002F080FD0748084A002301212B70237008
:105520000370117038BD00BF5424002009130020FF
:10553000081300204C130020502400202DE9F043D4
:105540009D4D2B7891B0002B40F012819B4C9C4BD1
:105550001D88ADB215F0FF0655D0F30600F1268187
:10556000F70700F1398116F0E80F0BD02388934F2D
:10557000990700F0E4816DB2002DC0F2A282E8200C
:10558000FEF7C0FBB7071ED516F0680F18D12388A9
:105590008A4A402B00F04483002B40F03C820023D9
:1055A00063718649FFF790FF38B1CB7803F0400371
:1055B00003F0FF02002B00F08F830023E3702380B1
:1055C0000220FEF79FFB73071DD523887B4D03F058
:1055D000D0031BB12B79002B00F00882E3781E0664
:1055E00000F1098203F0200202F0FF01002A00F01E
:1055F000CB8103F07F0343F001034022E37022805C
:105600000420FEF77FFB6F490B7803F0FF026BB9B4
:105610006D4A137803F0FF05002B4FD1228812F05A
:10562000FC0F40F0A08011B0BDE8F083637D6348BB
:10563000002BEDD1EFF3108572B60B702B4685F37E
:105640001088007A12F0010F0CBF034664239507FF
:1056500044BF0A33DBB2570744BF0A3BDBB216072D
:1056600044BF0133DBB2D50644BF03F1FF33DBB2E5
:10567000C82B28BFC8230A2B657A38BF0A2312F02B
:10568000200F14BF6421294612F0400F18BF3221A9
:1056900012F0800F18BF1921984201D1A942B7D04A
:1056A0000022237222736172FFF7D2FEFFF778FEA9
:1056B000454A137803F0FF05002BAFD0EFF31083BA
:1056C00072B60021117083F31088A27A15F0010FD1
:1056D0000CBF13466423A80744BF0A33DBB2690733
:1056E00044BF0A3BDBB22F0744BF0133DBB2EE06F7
:1056F00044BF03F1FF33DBB2C82B28BFC8230A2BFA
:1057000038BF0A239A4222880AD0A3722B4E002A5D
:1057100000F0B681737943F008037371002323739B
:10572000A80601D5102A14D015F0C00F3FF477AFAA
:10573000002A40F0C181254E757A6F064CBF05F0F6
:10574000BF0545F04005284601F020F82288757213
:1057500065E7E37A194A002B40F094820223D37262
:1057600015F0C00FE7D1FEF753FF11B0BDE8F0838D
:10577000124C174803F0FF060127278001F0F0FACA
:105780003146144801F0ECFA013E01F003FFC82055
:1057900001F068FBBE4240F29C81094BEFF310829E
:1057A00072B60021297082F31088D1E60123A3701C
:1057B00011B0BDE8F08300BFEE000020980D00207E
:1057C000F2040020ED000020F0040020700C002006
:1057D000E0EA000868EA0008DFF86CE3DFF84883D5
:1057E000BEE80F0001AF0FC7DEF800303B6006A82F
:1057F00001A9FEF79DFD3C2001F0A2FA2388102BA1
:1058000000F07E8200F2C380022B00F0898200F259
:105810003082002B00F07082012B02D1BB4801F0D6
:105820009FFABB4F97F87E1011F0010100F005813F
:10583000637B002B00F00181B64801F091FA06A8C5
:1058400001F092FE97F87E309F0700F1C281FFF7CA
:105850003BFE18B1C769002F40F0DA81AE4801F075
:105860007FFA238803F07C03002B00F03D81AB4BD3
:1058700093ED070AFEF74AF82C2001F061FA94ED47
:10588000040A002001F0B8F900F046FF8046FEF758
:105890007BFDA34BA34A1B69177803F001035F400C
:1058A00048EA00033B4313F0FF0F814640F05F815D
:1058B000637B9D4A002B00F0EB80013B5373237BFD
:1058C000994A002B40F01381138803F07C03002BCE
:1058D00000F04A810E231373944801F041FA217AB3
:1058E000934801F03DFA2C2001F02AFA617A9048A1
:1058F00001F036FA2C2001F023FAA17A8C4801F04D
:105900002FFA8C4B1B78002B00F0F4808A4B1B780D
:10591000002B40F0D481894B89481F6901F020FA9F
:10592000432001F00DFAF80700F1EC803E2001F071
:1059300007FA01F02FFE0120FEF7E4F913E613F059
:10594000280F41D1002B44D10122E270720600F1F0
:10595000808137076DB201D510232380B0067FF513
:105960000BAE062001F0F2FFE3786F4A190607D468
:105970001288402A00F0E381802A01D04022228050
:1059800043F02003E370F7E5E170218038E6802BD7
:1059900000F0AE8100F26281202B00F09981402B53
:1059A0007FF43FAF674801F0DBF998F8033019073F
:1059B00000F1E1815A0740F1E2819B0640F1AC81A0
:1059C000312001F0BDF92CE7FA7812F0C00F00F099
:1059D00065816AB27006154602D5990640F1D381F9
:1059E0003707BBD513F0E00FB8D1B5E795F9033011
:1059F000002B80F2218100236371FFF783FDFFF705
:105A0000A1FB00F0BBFEFFF7DBFC4F494F48FEF760
:105A10008FFCE378E6E5D9067FF5D2ADD178C907EA
:105A20007FF5CEAD102B7FF4BAADD37A002B3FF4C7
:105A3000B6AD43F00803D372C2E5454B0BA803F1A2
:105A4000140E06AAB3EC017AD3ED047AD3ED096AF9
:105A500077EE277A77EEA67AE0EC017A29B992ED13
:105A6000007A77EE677AC2ED007A734502F104029C
:105A7000E8D100297FF4E0AE364801F071F9DEE6A6
:105A8000354B93ED040A987AFFF75EFA328845E6C3
:105A9000138803F07C03002B00F0B7800E235373B0
:105AA000237B214A0BB9012313732C4801F058F9C9
:105AB0000BA801F059FD02E712F0380F3FF4AFAD2B
:105AC00039E62388184A012B00F0E38080232380E5
:105AD00055E5384601F03AFF1020FEF713F9204B48
